:100000000C945E000C9486000C9486000C94860080
:100010000C9486000C9486000C9486000C94860048
:100020000C9486000C9486000C9486000C94860038
:100030000C9486000C9486000C9486000C94860028
:100040000C9450070C9486000C941E070C94F80630
:100050000C9486000C9486000C9486000C94860008
:100060000C9486000C948600000000080002010039
:100070000003040700000000000000000000000072
:10008000250028002B0000000000240027002A0083
:10009000040404040404040402020202020203032E
:1000A0000303030301020408102040800102040836
:1000B00010200102040810209A07220A11241FBEF2
:1000C000CFEFD8E0DEBFCDBF22E0AEE4B1E001C0AB
:1000D0001D92A03CB207E1F711E0A0E0B1E0E0E73B
:1000E000FEE102C005900D92AE34B107D9F710E0E1
:1000F000CDE5D0E004C02197FE010E94110DCC3562
:10010000D107C9F70E9440080C942B0F0C940000F3
:1001100090E0FC01EC55FF4F249180579F4FFC016C
:100120008491882399F090E0880F991FFC01EA5789
:10013000FF4FA591B491FC01E458FF4F8591949134
:100140008FB7F894EC91E22BEC938FBF0895AF92A8
:10015000BF92CF92DF92EF92FF920F931F93CF93B4
:10016000DF936C017B018B01040F151FEB015E0116
:10017000AE18BF08C017D10759F06991D601ED91AB
:10018000FC910190F081E02DC6010995892B79F74A
:10019000C501DF91CF911F910F91FF90EF90DF90FC
:1001A000CF90BF90AF900895FC01538D448D252FC3
:1001B00030E0842F90E0821B930B541710F0CF9601
:1001C000089501970895FC01918D828D981761F033
:1001D000A28DAE0FBF2FB11D5D968C91928D9F5F4A
:1001E0009F73928F90E008958FEF9FEF0895FC0129
:1001F000918D828D981731F0828DE80FF11D858DDC
:1002000090E008958FEF9FEF0895FC01918D228D6E
:10021000892F90E0805C9F4F821B91098F739927F3
:10022000089587E891E00E94050121E0892B09F4F7
:1002300020E0822F089580E090E0892B29F00E9431
:10024000110181110C9400000895FC01A48DA80FE8
:10025000B92FB11DA35ABF4F2C91848D90E0019608
:100260008F739927848FA689B7892C93A089B18928
:100270008C91837080648C93938D848D981306C0C9
:100280000288F389E02D80818F7D80830895EF922D
:10029000FF920F931F93CF93DF93EC0181E0888F40
:1002A0009B8D8C8D98131AC0E889F989808185FF10
:1002B00015C09FB7F894EE89FF896083E889F989B2
:1002C00080818370806480839FBF81E090E0DF91B4
:1002D000CF911F910F91FF90EF900895F62E0B8D07
:1002E00010E00F5F1F4F0F731127E02E8C8D8E11C2
:1002F0000CC00FB607FCFACFE889F989808185FF29
:10030000F5CFCE010E942501F1CFEB8DEC0FFD2F33
:10031000F11DE35AFF4FF0829FB7F8940B8FEA89E3
:10032000FB8980818062CFCFCF93DF93EC01888DF2
:100330008823B9F0AA89BB89E889F9898C9185FD60
:1003400003C0808186FD0DC00FB607FCF7CF8C91EE
:1003500085FFF2CF808185FFEDCFCE010E94250180
:10036000E9CFDF91CF91089590E0FC01E859FF4F6C
:100370002491FC01EC55FF4F3491FC01E057FF4FF5
:10038000E491EE23C9F0222339F0233001F1A8F4DF
:10039000213019F1223029F1F0E0EE0FFF1FE4586F
:1003A000FF4FA591B4918FB7F894EC91611126C0DD
:1003B00030953E233C938FBF08952730A9F0283015
:1003C000C9F0243049F7809180008F7D03C080916F
:1003D00080008F7780938000DFCF84B58F7784BDD6
:1003E000DBCF84B58F7DFBCF8091B0008F7780937A
:1003F000B000D2CF8091B0008F7DF9CF3E2BDACF05
:10040000CF93DF93FC012381222329F1EC01848126
:100410000E9488008D810E9488008B81843011F0B9
:10042000883099F48E810E9488008F810E94880014
:100430008FA58F3F81F00E9488006EA581E068271C
:100440008FA5DF91CF910C94B401833011F08630E9
:1004500079F78E81EBCFDF91CF910895CF93DF9322
:10046000FC0123812223A1F0EC010190F081E02D19
:100470000480F581E02D60E009958FA58F3F41F064
:100480000E9488006EA58FA5DF91CF910C94B401D6
:10049000DF91CF910895DC01ED91FC9124813581AC
:1004A000477055276627772741505109610971091F
:1004B000473051056105710560F4FA01EE59FD4FB1
:1004C0000C94110D6C026E027002720274027602BC
:1004D000780261E0F901099465E0FCCF64E0FACFAD
:1004E00066E0F8CF62E0F6CF6AE0F4CF68E0F2CFE2
:1004F00069E0F0CFCF93DF93EC01CB01BA0126E0A6
:1005000030E040E050E00E94F20C6230710581055D
:10051000910589F16CF46115710581059105D1F0A2
:100520006130710581059105F9F0DF91CF91089552
:10053000643071058105910561F124F16530710523
:100540008105910591F7E881F9810480F581E02D1D
:1005500066E006C0E881F9810480F581E02D64E061
:10056000CE01DF91CF910994E881F9810480F58172
:10057000E02D65E0F5CFE881F9810480F581E02D7B
:1005800061E0EECFE881F9810480F581E02D63E040
:10059000E7CFE881F9810480F581E02D62E0E0CFCA
:1005A000DC01ED91FC910480F581E02D437055272D
:1005B00066277727423051056105710571F0433098
:1005C00051056105710559F041305105610571050D
:1005D00011F065E0099466E0FDCF6AE0FBCF69E0C9
:1005E000F9CFCF93DF93EC01CB01BA0123E030E0E8
:1005F00040E050E00E94F20C6130710581059105E8
:1006000099F06230710581059105A9F0672B682B7F
:10061000692BC1F4E881F9810480F581E02D64E063
:10062000CE01DF91CF910994E881F9810480F581B1
:10063000E02D61E0F5CFE881F9810480F581E02DBE
:1006400062E0EECFDF91CF910895DC01ED91FC9156
:100650000480F581E02D43705527662777274230C7
:1006600051056105710571F0433051056105710552
:1006700059F0413051056105710511F062E00994AE
:1006800063E0FDCF61E0FBCF60E0F9CFCF93DF9374
:10069000EC01E881F9810480F581E02D8A8160E038
:1006A000811162E0CE010995E881F9810480F5812C
:1006B000E02D8A8161E0811163E0CE0109958CA56E
:1006C0009DA58230910538F0880F991F880F991FDA
:1006D00005970197F1F7E881F9810480F581E02D14
:1006E0008A8160E0811162E0CE01DF91CF910994AF
:1006F000CF93DF93EC0120E030E0A9016C897D8984
:100700008E899F890E94ED0C18162CF4E8A9F9A98E
:10071000DF91CF910994EAA9FBA9FACFCF92DF929A
:10072000EF92FF920F931F93CF93DF93DC01139609
:10073000CC91C43039F0C83059F1C33019F0C6300B
:1007400049F1C2E08C010C5F1F4FF12CE12CC62E49
:10075000D12CD1E0F8016481C6010E2C02C0959520
:1007600087950A94E2F780FD6D270F5F1F4F808108
:100770000E94B401BFEFEB1AFB0AEC1658F3DF91AD
:10078000CF911F910F91FF90EF90DF90CF90089540
:10079000C4E0D8CFC3E0D6CFDC011396EC91139719
:1007A000E93008F038C0F0E0E852FC4F0C94110D2D
:1007B000E103E703ED03F303F9030B04FF030B0469
:1007C0000504ED91FC910084F185E02D0994ED91F3
:1007D000FC910284F385E02DF9CFED91FC91048426
:1007E000F585E02DF3CFED91FC910684F785E02DA2
:1007F000EDCFED91FC910088F189E02DE7CFED91EF
:10080000FC910288F389E02DE1CFED91FC91048801
:10081000F589E02DDBCF0895CF92DF92EF92FF9222
:10082000CF93DF93EC013FB7F894809183019091CF
:100830008401A0918501B091860126B5A89B05C0D1
:100840002F3F19F00196A11DB11D3FBFBA2FA92F4F
:10085000982F88276C017D01C20ED11CE11CF11C70
:1008600042E0CC0CDD1CEE1CFF1C4A95D1F788A59C
:1008700099A5AAA5BBA5B701A601481B590B6A0BF0
:100880007B0B8CA19DA1AEA1BFA1481759076A0798
:100890007B0728F18C859D85AE85BF852A81222323
:1008A000D1F00196A11DB11D8C879D87AE87BF87B2
:1008B0004C855D856E857F85CE010E94CC03C8A6E0
:1008C000D9A6EAA6FBA681E0DF91CF91FF90EF9039
:1008D000DF90CF9008950197A109B109E5CF80E09D
:1008E000F3CF4F925F926F927F92AF92BF92CF926F
:1008F000DF92EF92FF920F931F93CF93DF93EC0160
:100900005A018B019A01AB016C897D898E899F897F
:100910000E947D0A882379F1488C598C6A8C7B8CE3
:1009200073016201F7FAF094F7F8F094A7019601C9
:10093000B501C8010E947D0A87FD0CC0A301920188
:10094000B501C8010E94ED0C73016201181614F084
:100950006501780120E030E0A901C701B6010E94DD
:100960007D0A811117C01CA21DA21EA21FA2CC8A43
:10097000DD8AEE8AFF8ADF91CF911F910F91FF9060
:10098000EF90DF90CF90BF90AF907F906F905F908F
:100990004F900895A701960160E074E284E799E41E
:1009A0000E94450C9F770E94BE0C6CA37DA38EA372
:1009B0009FA311E020E030E0A901C701B6010E9429
:1009C000ED0C18160CF010E01A83D1CF4F925F9205
:1009D0006F927F928F929F92AF92BF92CF92DF924F
:1009E000EF92FF920F931F93CF93DF93EC01C88890
:1009F000D988EA88FB888C859D85AE85BF85C81A15
:100A0000D90AEA0AFB0A6C897D898E899F899B0134
:100A1000AC010E94E30A4B015C016C8D7D8D8E8DD3
:100A20009F8D9B01AC010E94D90B9B01AC01C501BC
:100A3000B4010E94450C0E94B70CC114D104E1041A
:100A4000F10409F0B1C062307105810591050CF027
:100A5000CBC01CA21DA21EA21FA21C8A1D8A1E8A18
:100A60001F8A1CAA1DAA1EAA1FAADF91CF911F913F
:100A70000F91FF90EF90DF90CF90BF90AF909F903D
:100A80008F907F906F905F904F9008951016110691
:100A900012061306B4F46C157D058E059F051CF433
:100AA0002A812111A1C09B01AC0188279927DC0173
:100AB000821B930BA40BB50B8CAB9DABAEABBFAB4A
:100AC00093C0011511052105310509F48DC06C1580
:100AD0007D058E059F050CF087C08A81882309F467
:100AE00083C030952095109501951F4F2F4F3F4F94
:100AF0000CAB1DAB2EAB3FAB77C00115110521052B
:100B0000310509F471C08824992454018C189D087A
:100B1000AE08BF08681579058A059B050CF064C00E
:100B20008A81811161C0DDCFCCACDDACEEACFFAC15
:100B3000A7019601C701B6010E94D90B2B013C0108
:100B4000C501B4010E94840A20E030E040E850E48E
:100B50000E94E30A20E030E040E85FE30E94D90B06
:100B60009B01AC01C301B2010E94450C9B01AC0189
:100B7000C701B6010E94D80B3B016C01FE01E05C8D
:100B8000FF4FE080F180028113819701A8010E944C
:100B9000ED0C181614F473018601C701D8018CAF4F
:100BA0009DAFAEAFBFAF3AC00CA91DA92EA93FA9FA
:100BB0001C141D041E041F040CF468CF101611062B
:100BC000120613060CF099CF0027112798010C1973
:100BD0001D092E093F0960177107820793070CF062
:100BE00062CF2A8121115FCF8CA89DA8AEA8BFA893
:100BF00081149104A104B10409F096CF88AD99AD98
:100C0000AAADBBAD8CAF9DAFAEAFBFAF81E01C1442
:100C10001D041E041F040CF080E08A833FEF831A3A
:100C2000930AA30AB30A8CAA9DAAAEAABFAACCAC07
:100C3000DDACEEACFFACC701B6010E94BE0C6CA3EC
:100C40007DA38EA39FA3A701960160E074E284E7D1
:100C500099E40E94450C6C8B7D8B8E8B9F8B2A8137
:100C6000211103CF90586C8B7D8B8E8B9F8BFDCE8B
:100C7000CF93DF93D0E0C0E0009771F0FC010190CA
:100C80000020E9F73197AF01481B590BBC0187E8F9
:100C900091E00E94A700EC0142E050E062E371E0C5
:100CA00087E891E00E94A7008C0F9D1FDF91CF91F4
:100CB00008958F929F92AF92BF92CF92DF92EF9260
:100CC000FF92CF93DF93EC018AE091E099838883D0
:100CD00081E08B831C861D861E861F86188A198AD2
:100CE0001A8A1B8A1C8A1D8A1E8A1F8AC12CD12C33
:100CF00080E8E82E8FE3F82EC88ED98EEA8EFB8E20
:100D00001C8E1D8E1E8E1F8EC8A2D9A2EAA2FBA227
:100D10001CA21DA21EA21FA281E090E09DA78CA78D
:100D20008FEF8FA718A619A61AA61BA66C834D8352
:100D300084E08E8385E08F831EA61CAA1DAA1EAAAE
:100D40001FAA18AE19AE1AAE1BAE1CAE1DAE1EAE5B
:100D50001FAEFE01E05CFF4FC082D182E282F382CF
:100D60001A82188619861A861B86CE010E940002F6
:100D70008C8C9D8CAE8CBF8CA7019601C501B401F3
:100D80000E947D0A882349F16CA97DA98EA99FA99B
:100D90000E94840AA50194010E94E30A0E94B70CF4
:100DA0006CAB7DAB8EAB9FAB86E896E6A9E6B9E46B
:100DB00088AF99AFAAAFBBAFCC8EDD8EEE8EFF8E23
:100DC000CE01DF91CF91FF90EF90DF90CF90BF9059
:100DD000AF909F908F900C94E604DF91CF91FF909D
:100DE000EF90DF90CF90BF90AF909F908F9008953D
:100DF0001F920F920FB60F9211242F933F934F9390
:100E00005F936F937F938F939F93AF93BF93EF9372
:100E1000FF9387E891E00E942501FF91EF91BF9138
:100E2000AF919F918F917F916F915F914F913F9182
:100E30002F910F900FBE0F901F9018951F920F9239
:100E40000FB60F9211242F938F939F93EF93FF93DD
:100E5000E0919701F09198018081E0919D01F091DE
:100E60009E0182FD1BC090818091A0018F5F8F73D6
:100E70002091A101821741F0E091A001F0E0E95733
:100E8000FE4F958F8093A001FF91EF919F918F91DD
:100E90002F910F900FBE0F901F9018958081F4CF67
:100EA0001F920F920FB60F9211242F933F938F939F
:100EB0009F93AF93BF938091240290912502A091BC
:100EC0002602B091270230914E0123E0230F2D37E7
:100ED00058F50196A11DB11D20934E018093240267
:100EE00090932502A0932602B0932702809183015C
:100EF00090918401A0918501B09186010196A11D78
:100F0000B11D8093830190938401A0938501B093D8
:100F10008601BF91AF919F918F913F912F910F903B
:100F20000FBE0F901F90189526E8230F0296A11D63
:100F3000B11DD2CF10928A011092890188EE93E000
:100F4000A0E0B0E080938B0190938C01A0938D0181
:100F5000B0938E0184E291E09093880180938701A1
:100F600085EC90E0909394018093930184EC90E061
:100F7000909396018093950180EC90E09093980176
:100F80008093970181EC90E090939A01809399016E
:100F900082EC90E090939C0180939B0186EC90E022
:100FA00090939E0180939D011092A0011092A10147
:100FB0001092A2011092A30145E062E086E792E060
:100FC0000E94590646E063E082E392E00E945906DF
:100FD0002FB7F8948091240290912502A0912602C7
:100FE000B09127022FBF80932E0290932F02A093DF
:100FF0003002B0933102109229021092280210920E
:101000002B0210922A0210922D0210922C0261E003
:1010100070E090E080E00E945E0E0097E1F0909317
:1010200029028093280210922B0210922A0220910A
:101030002C0230912D02232B11F4FC01108210920E
:101040002D0210922C0264E371E0809128029091AD
:1010500029020C94240F8091280290912902009774
:1010600011F00E94D50D10922902109228021092C0
:101070002D0210922C0210922B0210922A02089537
:10108000789484B5826084BD84B5816084BD85B563
:10109000826085BD85B5816085BD80916E0081606F
:1010A00080936E0010928100809181008260809315
:1010B0008100809181008160809381008091800017
:1010C0008160809380008091B10084608093B10042
:1010D0008091B00081608093B00080917A0084603C
:1010E00080937A0080917A00826080937A00809168
:1010F0007A00816080937A0080917A008068809382
:101100007A001092C100E0919701F091980182E07D
:101110008083E0919301F09194011082E091950118
:10112000F091960180E1808310929F01E0919B01F4
:10113000F0919C0186E08083E0919901F0919A0101
:10114000808180618083E0919901F0919A01808192
:1011500088608083E0919901F0919A018081806894
:101160008083E0919901F0919A0180818F7D808345
:1011700085E391E00E94380620E030E44CE955E434
:1011800060918E0270918F028091900290919102F5
:101190000E947D0A882309F453C080E090E4ACE902
:1011A000B5E480938E0290938F02A0939002B09347
:1011B000910280E090E0A8E4B3E48093B6029093BB
:1011C000B702A093B802B093B9028091AA0290919D
:1011D000AB02A091AC02B091AD02181619061A0626
:1011E0001B0674F560918A0270918B0280918C02CB
:1011F00090918D029B01AC010E94E30A6B017C017E
:101200006091920270919302809194029091950264
:101210009B01AC010E94D90B9B01AC01C701B60137
:101220000E94450C0E94B70C6093AA027093AB0217
:101230008093AC029093AD0286E792E00E94E604B0
:1012400040E050E46CE975E486E792E00E947104A6
:1012500020E030E44CE955E460914A0270914B0281
:1012600080914C0290914D020E947D0A882309F4DE
:1012700053C080E090E4ACE9B5E480934A029093D7
:101280004B02A0934C02B0934D0280E090E0A8E4A2
:10129000B3E48093720290937302A0937402B093AC
:1012A00075028091660290916702A0916802B091E8
:1012B0006902181619061A061B0674F56091460293
:1012C0007091470280914802909149029B01AC01C4
:1012D0000E94E30A6B017C0160914E0270914F0203
:1012E00080915002909151029B01AC010E94D90B58
:1012F0009B01AC01C701B6010E94450C0E94B70CCE
:10130000609366027093670280936802909369020B
:1013100082E392E00E94E60440E050E46CE975E468
:1013200082E392E00E947104C0E0D0E087E891E09F
:101330000E940501181619060CF059C087E891E0C3
:101340000E94E3008A30A9F08D3081F32091810161
:10135000309182012133310548F7A9014F5F5F4F7A
:101360005093820140938101215B3E4FF9018083BC
:10137000DDCFE0918101F0918201E15BFE4F1082AF
:101380006CE471E08FE491E00E94490A7C016CE416
:1013900071E090E080E00E94490A8C01C7010E9440
:1013A0003806C8010E943806C7010E942B0ABC01FA
:1013B000990F880B990B0E94840AAB01BC0186E748
:1013C00092E00E947104C8010E942B0ABC01990F8F
:1013D000880B990B0E94840AAB01BC0182E392E066
:1013E0000E94710410928201109281019FCF80911E
:1013F0009A0290919B02A0919C02B0919D02892B30
:101400008A2B8B2B21F086E792E00E940C048091BE
:10141000560290915702A0915802B0915902892B1F
:101420008A2B8B2B21F082E392E00E940C04209700
:1014300009F47CCF0E941101882309F477CF0E9420
:10144000000074CF8091280290912902009711F03A
:101450000C94D50D0895FC0188279927E8942191D3
:101460002032E9F3293010F02E30C8F32B3241F04E
:101470002D3239F4689404C00E94750A820F911DC0
:10148000219120532A30C0F31EF4909581959F4FEF
:1014900008954AEB52E00E944E0A0895FA01A19184
:1014A000B081009719F41097E1F0CD01DC01CD0176
:1014B0000D90002011F4C00113C0FB0121912223E3
:1014C00019F02015D9F7F3CFFB012191201519F45C
:1014D0001E92119606C02223C1F70D900020A1F79D
:1014E000D001FA01A193B08308957AE0979F902DDF
:1014F000879F802D910D112408950E94BF0A08F442
:1015000081E00895E89409C097FB3EF4909580959A
:10151000709561957F4F8F4F9F4F9923A9F0F92FB9
:1015200096E9BB279395F695879577956795B79537
:10153000F111F8CFFAF4BB0F11F460FF1BC06F5F1D
:101540007F4F8F4F9F4F16C0882311F096E911C02F
:10155000772321F09EE8872F762F05C0662371F050
:1015600096E8862F70E060E02AF09A95660F771F64
:10157000881FDAF7880F9695879597F90895990F40
:101580000008550FAA0BE0E8FEEF16161706E8074D
:10159000F907C0F012161306E407F50798F0621B6E
:1015A000730B840B950B39F40A2661F0232B242B43
:1015B000252B21F408950A2609F4A140A6958FEF62
:1015C000811D811D08950E94F60A0C94670B0E94EC
:1015D000590B38F00E94600B20F0952311F00C9409
:1015E000500B0C94560B11240C949B0B0E94780BFF
:1015F00070F3959FC1F3950F50E0551F629FF00166
:10160000729FBB27F00DB11D639FAA27F00DB11D7E
:10161000AA1F649F6627B00DA11D661F829F222707
:10162000B00DA11D621F739FB00DA11D621F839F8E
:10163000A00D611D221F749F3327A00D611D231F64
:10164000849F600D211D822F762F6A2F11249F57B2
:1016500050409AF0F1F088234AF0EE0FFF1FBB1FB5
:10166000661F771F881F91505040A9F79E3F510574
:1016700080F00C94500B0C949B0B5F3FE4F3983E6E
:10168000D4F3869577956795B795F795E7959F5F1E
:10169000C1F7FE2B880F911D9695879597F90895B0
:1016A00097F99F6780E870E060E008959FEF80EC15
:1016B000089500240A9416161706180609060895B8
:1016C00000240A9412161306140605060895092E1E
:1016D0000394000C11F4882352F0BB0F40F4BF2B8D
:1016E00011F460FF04C06F5F7F4F8F4F9F4F0895CD
:1016F00057FD9058440F551F59F05F3F71F04795C3
:10170000880F97FB991F61F09F3F79F087950895A7
:10171000121613061406551FF2CF4695F1DF08C0C6
:10172000161617061806991FF1CF869571056105E3
:1017300008940895E894BB2766277727CB0197F98B
:1017400008952F923F924F925F926F927F928F9265
:101750009F92AF92BF92CF92DF92EF92FF920F9340
:101760001F93CF93DF93CDB7DEB7CA1BDB0B0FB64A
:10177000F894DEBF0FBECDBF09942A883988488807
:101780005F846E847D848C849B84AA84B984C8849D
:10179000DF80EE80FD800C811B81AA81B981CE0F94
:1017A000D11D0FB6F894DEBF0FBECDBFED01089579
:1017B0005058BB27AA270E94F00B0C94670B0E947D
:1017C000590B38F00E94600B20F039F49F3F19F458
:1017D00026F40C94560B0EF4E095E7FB0C94500B9A
:1017E000E92F0E94780B58F3BA1762077307840732
:1017F000950720F079F4A6F50C949A0B0EF4E09579
:101800000B2EBA2FA02D0B01B90190010C01CA01BA
:10181000A0011124FF27591B99F0593F50F4503E65
:1018200068F11A16F040A22F232F342F4427585F57
:10183000F3CF469537952795A795F0405395C9F76F
:101840007EF41F16BA0B620B730B840BBAF0915027
:10185000A1F0FF0FBB1F661F771F881FC2F70EC0C6
:10186000BA0F621F731F841F48F487957795679599
:10187000B795F7959E3F08F0B0CF9395880F08F085
:101880009927EE0F9795879508950E94590C0C940F
:10189000670B0E94600B58F00E94590B40F029F42E
:1018A0005F3F29F00C94500B51110C949B0B0C943E
:1018B000560B0E94780B68F39923B1F3552391F3EB
:1018C000951B550BBB27AA2762177307840738F0AF
:1018D0009F5F5F4F220F331F441FAA1FA9F335D00C
:1018E0000E2E3AF0E0E832D091505040E695001CC0
:1018F000CAF72BD0FE2F29D0660F771F881FBB1F7A
:10190000261737074807AB07B0E809F0BB0B802D57
:10191000BF01FF2793585F4F3AF09E3F510578F083
:101920000C94500B0C949B0B5F3FE4F3983ED4F364
:10193000869577956795B795F7959F5FC9F7880F57
:10194000911D9695879597F90895E1E0660F771FA9
:10195000881FBB1F621773078407BA0720F0621B3A
:10196000730B840BBA0BEE1F88F7E09508950E9465
:10197000BE0C6894B1110C949B0B08950E94800BCF
:1019800088F09F5798F0B92F9927B751B0F0E1F040
:10199000660F771F881F991F1AF0BA95C9F714C0F0
:1019A000B13091F00E949A0BB1E008950C949A0B1B
:1019B000672F782F8827B85F39F0B93FCCF3869529
:1019C00077956795B395D9F73EF490958095709586
:1019D00061957F4F8F4F9F4F08950E94BF0A08F473
:1019E0008FEF0895052E97FB1EF400940E94090DB9
:1019F00057FD07D00E94170D07FC03D04EF40C943E
:101A0000090D50954095309521953F4F4F4F5F4FB1
:101A1000089590958095709561957F4F8F4F9F4F5A
:101A20000895EE0FFF1F0590F491E02D0994A1E2B7
:101A30001A2EAA1BBB1BFD010DC0AA1FBB1FEE1F48
:101A4000FF1FA217B307E407F50720F0A21BB30B93
:101A5000E40BF50B661F771F881F991F1A9469F70F
:101A600060957095809590959B01AC01BD01CF016B
:101A700008950F931F93CF93DF938230910510F455
:101A800082E090E0E091BE02F091BF0230E020E001
:101A9000B0E0A0E0309799F42115310509F44AC06F
:101AA000281B390B24303105D8F58A819B816115BB
:101AB000710589F1FB0193838283FE0111C040818E
:101AC00051810281138148175907E0F048175907DF
:101AD00099F4109761F012960C93129713961C9339
:101AE0003296CF01DF91CF911F910F91089500930E
:101AF000BE021093BF02F4CF2115310551F04217F9
:101B0000530738F0A901DB019A01BD01DF01F8019B
:101B1000C1CFEF01F9CF9093BF028093BE02CDCF2A
:101B2000FE01E20FF31F8193919322503109398313
:101B30002883D7CF2091BC023091BD02232B41F4E2
:101B400020910201309103013093BD022093BC0229
:101B500020910001309101012115310541F42DB78B
:101B60003EB74091040150910501241B350BE091D3
:101B7000BC02F091BD02E217F307A0F42E1B3F0B4D
:101B80002817390778F0AC014E5F5F4F24173507EF
:101B900048F04E0F5F1F5093BD024093BC028193EB
:101BA00091939FCFF0E0E0E09CCFCF93DF9300973D
:101BB000E9F0FC01329713821282A091BE02B0912B
:101BC000BF02ED0130E020E01097A1F420813181C7
:101BD000820F931F2091BC023091BD022817390754
:101BE00009F061C0F093BD02E093BC02DF91CF9198
:101BF0000895EA01CE17DF07E8F54A815B819E016F
:101C000041155105B1F7E901FB83EA8349915991E7
:101C1000C40FD51FEC17FD0761F4808191810296F6
:101C2000840F951FE90199838883828193819B8327
:101C30008A83F0E0E0E012968D919C9113970097D3
:101C4000B9F52D913C911197CD010296820F931F0A
:101C50002091BC023091BD022817390739F6309720
:101C600051F51092BF021092BE02B093BD02A09334
:101C7000BC02BCCFD383C28340815181840F951FA6
:101C8000C817D90761F44E5F5F4F88819981480F6B
:101C9000591F518340838A819B81938382832115BD
:101CA000310509F0B0CFF093BF02E093BE029ECFA2
:101CB000FD01DC01C0CF13821282D7CFB0E0A0E0DB
:101CC000E4E6FEE00C94A30B8C01009751F4CB01E9
:101CD0000E94390D8C01C801CDB7DEB7E0E10C944C
:101CE000BF0BFC01E60FF71F9C0122503109E217E0
:101CF000F30708F49DC0D901CD91DC911197C61767
:101D0000D70798F0C530D10530F3CE010497861778
:101D1000970708F3C61BD70B2297C193D1936D93F6
:101D20007C93CF010E94D50DD6CF5B01AC1ABD0AC2
:101D30004C018C0E9D1EA091BE02B091BF02512C91
:101D4000412CF12CE12C109731F58091BC0290913F
:101D5000BD028815990509F05CC04616570608F0C3
:101D600058C08091000190910101009741F48DB716
:101D70009EB74091040150910501841B950BE81713
:101D8000F90708F055C0F093BD02E093BC02F901D9
:101D900071836083A0CF8D919C91119712966C9066
:101DA000129713967C901397A815B90559F56C01F5
:101DB00042E0C40ED11CCA14DB0420F1AC014A1964
:101DC0005B09DA011296159780F062827382518363
:101DD0004083D9016D937C93E114F10471F0D70134
:101DE0001396FC93EE93129776CF22968C0F9D1F3D
:101DF000F90191838083F301EFCFF093BF02E09369
:101E0000BE0269CF4816590608F42C017D01D301A2
:101E10009ACFCB010E94390D7C01009749F0AE01A9
:101E2000B8010E941B0FC8010E94D50D870153CF36
:101E300010E000E050CFFB01DC0102C001900D92E8
:101E400041505040D8F70895FB01DC0101900D92FC
:101E50000020E1F7089510E0CDE5D0E004C0FE01D8
:101E60000E94110D2196CE35D107C9F7F894FFCF06
:101E70000000C0028000000000002E0200028E035D
:101E8000CC03780346032503F102D0027A024B0209
:101E9000000000004701A700D40094010501E30001
:101EA000F7000D0A004D6F746F7265732054656CF6
:0E1EB0006573636F70696F20302E31003A0049
:00000001FF
