:020000040000FA
:100000000C947B000C94A3000C94A3000C94A3000C
:100010000C94A3000C94A3000C94A3000C94A300D4
:100020000C94A3000C94A3000C94A3000C94A300C4
:100030000C94A3000C94A3000C94A3000C94A300B4
:100040000C94350B0C94A3000C94030B0C94DD0A58
:100050000C94A3000C94A3000C94A3000C94A30094
:100060000C94A3000C94A3004E414E494E495459A0
:10007000494E46CDCCCC3D0AD7233C17B7D1387773
:10008000CC2B329595E6241FB14F0A000020410089
:1000900000C84200401C4620BCBE4CCA1B0E5AAED3
:1000A000C59D740000000800020100000304070061
:1000B0000000000000000000000000250028002BC8
:1000C0000000000000240027002A000404040404A7
:1000D00004040402020202020203030303030301F5
:1000E00002040810204080010204081020010204CC
:1000F000081020007F0B11241FBECFEFD8E0DEBF19
:10010000CDBF23E0AAEEB1E001C01D92A937B2072E
:10011000E1F711E0A0E0B1E0E8E9F8E202C0059003
:100120000D92AA3EB107D9F710E0CBE7D0E004C0AA
:100130002197FE010E943614CA37D107C9F70E94E1
:10014000E30C0C944A140C94000090E0FC01E15282
:10015000FF4F249185539F4FFC018491882399F090
:1001600090E0880F991FFC01EF53FF4FA591B491C8
:10017000FC01E954FF4F859194918FB7F894EC916D
:10018000E22BEC938FBF0895CF93DF93DC0116969B
:100190002C914EEE52E0EBEEF2E0C9EED2E02111EE
:1001A00006C04DEE52E0E7EEF2E0C5EED2E0DC0133
:1001B00015961C921E92149728813981232B59F48D
:1001C0009183808399838883FA0180818F5F808304
:1001D000DF91CF910895C081D1819D838C839183DC
:1001E0008083F2CFAF92BF92CF92DF92EF92FF92D5
:1001F0000F931F93CF93DF936C017B018B01040F4F
:10020000151FEB015E01AE18BF08C017D10759F0EA
:100210006991D601ED91FC910190F081E02DC6012C
:100220000995892B79F7C501DF91CF911F910F9126
:10023000FF90EF90DF90CF90BF90AF900895FC01BA
:10024000538D448D252F30E0842F90E0821B930B3B
:10025000541710F0CF96089501970895FC01918DE1
:10026000828D981761F0A28DAE0FBF2FB11D5D96E4
:100270008C91928D9F5F9F73928F90E008958FEF86
:100280009FEF0895FC01918D828D981731F0828D3A
:10029000E80FF11D858D90E008958FEF9FEF089591
:1002A000FC01918D228D892F90E0805C9F4F821BF5
:1002B00091098F739927089587E392E00E94500176
:1002C00021E0892B09F420E0822F089580E090E05E
:1002D000892B29F00E945C0181110C940000089583
:1002E000FC01A48DA80FB92FB11DA35ABF4F2C91AB
:1002F000848D90E001968F739927848FA689B789A2
:100300002C93A089B1898C91837080648C93938D98
:10031000848D981306C00288F389E02D80818F7D3B
:1003200080830895EF92FF920F931F93CF93DF93F3
:10033000EC0181E0888F9B8D8C8D98131AC0E88921
:10034000F989808185FF15C09FB7F894EE89FF89F0
:100350006083E889F98980818370806480839FBF8E
:1003600081E090E0DF91CF911F910F91FF90EF908E
:100370000895F62E0B8D10E00F5F1F4F0F7311279E
:10038000E02E8C8D8E110CC00FB607FCFACFE889D9
:10039000F989808185FFF5CFCE010E947001F1CFF0
:1003A000EB8DEC0FFD2FF11DE35AFF4FF0829FB74D
:1003B000F8940B8FEA89FB8980818062CFCFCF933D
:1003C000DF93EC01888D8823B9F0AA89BB89E8897D
:1003D000F9898C9185FD03C0808186FD0DC00FB623
:1003E00007FCF7CF8C9185FFF2CF808185FFEDCFA1
:1003F000CE010E947001E9CFDF91CF91089590E086
:10040000FC01ED55FF4F2491FC01E152FF4F349167
:10041000FC01E553FF4FE491EE23C9F0222339F0AC
:10042000233001F1A8F4213019F1223029F1F0E054
:10043000EE0FFF1FE954FF4FA591B4918FB7F894C9
:10044000EC91611126C030953E233C938FBF0895F7
:100450002730A9F02830C9F0243049F78091800076
:100460008F7D03C0809180008F7780938000DFCFE5
:1004700084B58F7784BDDBCF84B58F7DFBCF809132
:10048000B0008F778093B000D2CF8091B0008F7D85
:10049000F9CF3E2BDACF4F925F926F927F92AF925D
:1004A000BF92CF92DF92EF92FF920F931F93CF9361
:1004B000DF93EC015A018B01488C598C6A8C7B8C40
:1004C00073016201F7FAF094F7F8F0949A01AB0126
:1004D000C701B6010E945613181664F09501A801D1
:1004E000C301B2010E94C9107301620187FD02C0FD
:1004F0006501780120E030E0A901C701B6010E9442
:10050000C910811117C01CA21DA21EA21FA2CC8A55
:10051000DD8AEE8AFF8ADF91CF911F910F91FF90C4
:10052000EF90DF90CF90BF90AF907F906F905F90F3
:100530004F900895A701960160E074E284E799E482
:100540000E94AE129F770E9427136CA37DA38EA3F7
:100550009FA311E020E030E0A901C701B6010E948D
:10056000561318160CF010E01A83D1CFCF93DF93F7
:10057000FC012381222329F1EC0184810E94A50042
:100580008D810E94A5008B81843011F0883099F410
:100590008E810E94A5008F810E94A5008FA58F3FAC
:1005A00081F00E94A5006EA581E068278FA5DF91EC
:1005B000CF910C94FF01833011F0863079F78E8152
:1005C000EBCFDF91CF910895CF93DF93FC0123818F
:1005D0002223A1F0EC010190F081E02D0480F5814F
:1005E000E02D60E009958FA58F3F41F00E94A500A6
:1005F0006EA58FA5DF91CF910C94FF01DF91CF9174
:100600000895DC01ED91FC912481358147705527D7
:100610006627772741505109610971094730510513
:100620006105710560F4FA01E85EFC4F0C94361424
:1006300022032403260328032A032C032E0361E04C
:10064000F901099465E0FCCF64E0FACF66E0F8CFE9
:1006500062E0F6CF6AE0F4CF68E0F2CF69E0F0CF75
:10066000CF93DF93EC01CB01BA0126E030E040E00C
:1006700050E00E941714623071058105910589F1DF
:100680006CF46115710581059105D1F0613071053A
:1006900081059105F9F0DF91CF91089564307105DE
:1006A0008105910561F124F16530710581059105A0
:1006B00091F7E881F9810480F581E02D66E006C0BC
:1006C000E881F9810480F581E02D64E0CE01DF91BD
:1006D000CF910994E881F9810480F581E02D65E0EE
:1006E000F5CFE881F9810480F581E02D61E0EECF5E
:1006F000E881F9810480F581E02D63E0E7CFE881AE
:10070000F9810480F581E02D62E0E0CFDC01ED911C
:10071000FC910480F581E02D4370552766277727EB
:10072000423051056105710571F043305105610595
:10073000710559F0413051056105710511F065E011
:10074000099466E0FDCF6AE0FBCF69E0F9CFCF9373
:10075000DF93EC01CB01BA0123E030E040E050E050
:100760000E941714613071058105910599F062307E
:10077000710581059105A9F0672B682B692BC1F4E0
:10078000E881F9810480F581E02D64E0CE01DF91FC
:10079000CF910994E881F9810480F581E02D61E031
:1007A000F5CFE881F9810480F581E02D62E0EECF9C
:1007B000DF91CF910895DC01ED91FC910480F581EA
:1007C000E02D437055276627772742305105610594
:1007D000710571F0433051056105710559F04130E3
:1007E00051056105710511F062E0099463E0FDCFE8
:1007F00061E0FBCF60E0F9CFCF93DF93EC01E881BC
:10080000F9810480F581E02D8A8160E0811162E048
:10081000CE010995E881F9810480F581E02D8A8176
:1008200061E0811163E0CE0109958CA59DA5823020
:10083000910538F0880F991F880F991F0597019728
:10084000F1F7E881F9810480F581E02D8A8160E08B
:10085000811162E0CE01DF91CF910994CF93DF93B4
:10086000EC0120E030E0A9016C897D898E899F89A7
:100870000E94561318162CF4E8A9F9A9DF91CF911C
:100880000994EAA9FBA9FACFCF92DF92EF92FF92E7
:100890000F931F93CF93DF93DC011396CC91C43059
:1008A00039F0C83059F1C33019F0C63049F1C2E00F
:1008B0008C010C5F1F4FF12CE12CC62ED12CD1E006
:1008C000F8016481C6010E2C02C0959587950A94A3
:1008D000E2F780FD6D270F5F1F4F80810E94FF01AF
:1008E000BFEFEB1AFB0AEC1658F3DF91CF911F9183
:1008F0000F91FF90EF90DF90CF900895C4E0D8CF94
:10090000C3E0D6CFDC011396EC911397E93008F0E1
:1009100038C0F0E0E257FB4F0C94361497049D0466
:10092000A304A904AF04C104B504C104BB04ED9140
:10093000FC910084F185E02D0994ED91FC910284F5
:10094000F385E02DF9CFED91FC910484F585E02D40
:10095000F3CFED91FC910684F785E02DEDCFED917D
:10096000FC910088F189E02DE7CFED91FC910288A0
:10097000F389E02DE1CFED91FC910488F589E02D1C
:10098000DBCF08954F925F926F927F928F929F92EA
:10099000AF92BF92CF92DF92EF92FF920F931F938D
:1009A000CF93DF93EC01C888D988EA88FB888C85CF
:1009B0009D85AE85BF85C81AD90AEA0AFB0A6C89EB
:1009C0007D898E899F899B01AC010E942F114B016B
:1009D0005C016C8D7D8D8E8D9F8D9B01AC010E9485
:1009E00042129B01AC01C501B4010E94AE120E94EB
:1009F0002013C114D104E104F10409F0B1C0623044
:100A00007105810591050CF0CBC01CA21DA21EA290
:100A10001FA21C8A1D8A1E8A1F8A1CAA1DAA1EAA22
:100A20001FAADF91CF911F910F91FF90EF90DF9060
:100A3000CF90BF90AF909F908F907F906F905F907E
:100A40004F9008951016110612061306B4F46C1593
:100A50007D058E059F051CF42A812111A1C09B01F3
:100A6000AC0188279927DC01821B930BA40BB50BE3
:100A70008CAB9DABAEABBFAB93C00115110521058F
:100A8000310509F48DC06C157D058E059F050CF0B0
:100A900087C08A81882309F483C0309520951095FA
:100AA00001951F4F2F4F3F4F0CAB1DAB2EAB3FABF4
:100AB00077C0011511052105310509F471C088249D
:100AC000992454018C189D08AE08BF086815790553
:100AD0008A059B050CF064C08A81811161C0DDCF5D
:100AE000CCACDDACEEACFFACA7019601C701B60102
:100AF0000E9442122B013C01C501B4010E94D0109A
:100B000020E030E040E850E40E942F1120E030E087
:100B100040E85FE30E9442129B01AC01C301B201B5
:100B20000E94AE129B01AC01C701B6010E944112A6
:100B30003B016C01FE01E05CFF4FE080F18002812F
:100B400013819701A8010E945613181614F473011B
:100B50008601C701D8018CAF9DAFAEAFBFAF3AC021
:100B60000CA91DA92EA93FA91C141D041E041F04B5
:100B70000CF468CF10161106120613060CF099CF6C
:100B80000027112798010C191D092E093F0960172C
:100B90007107820793070CF062CF2A8121115FCF82
:100BA0008CA89DA8AEA8BFA881149104A104B1048B
:100BB00009F096CF88AD99ADAAADBBAD8CAF9DAF16
:100BC000AEAFBFAF81E01C141D041E041F040CF067
:100BD00080E08A833FEF831A930AA30AB30A8CAAA0
:100BE0009DAAAEAABFAACCACDDACEEACFFACC701EF
:100BF000B6010E9427136CA37DA38EA39FA3A70118
:100C0000960160E074E284E799E40E94AE126C8B76
:100C10007D8B8E8B9F8B2A81211103CF90586C8BFB
:100C20007D8B8E8B9F8BFDCE4F925F926F927F92CA
:100C30008F929F92AF92BF92CF92DF92EF92FF92EC
:100C4000CF93DF9300D000D000D0CDB7DEB79E8326
:100C50008D83DC0154968D909D90AD90BC905797FC
:100C600020E030E0A901C501B4010E94C910882329
:100C700009F46DC0A5019401C501B4010E942F11B2
:100C80006B017C01ED81FE81648D758D868D978D64
:100C90009B01AC010E9442129B01AC01C701B6014D
:100CA0000E94AE120E9420136B017C01AD81BE81B7
:100CB0001C964D905D906D907C901F9750968D91F5
:100CC0009D910D90BC91A02D89839A83AB83BC83A9
:100CD00020E030E0A901C501B4010E9456131816A6
:100CE0008CF5BFEFCB1ADB0AEB0AFB0A4C0C5D1C40
:100CF0006E1C7F1C89819A81AB81BC81841595050E
:100D0000A605B70521F1AD81BE8150964D925D9249
:100D10006D927C925397CD0126960FB6F894DEBF64
:100D20000FBECDBFDF91CF91FF90EF90DF90CF90BE
:100D3000BF90AF909F908F907F906F905F904F90FB
:100D40000C94C204C094D094E094F094CFCF269633
:100D50000FB6F894DEBF0FBECDBFDF91CF91FF90ED
:100D6000EF90DF90CF90BF90AF909F908F907F904B
:100D70006F905F904F900895CF92DF92EF92FF9225
:100D80000F931F93CF93DF93EC016A017B0120E067
:100D900030E0A901CB01B6010E94C91087FF04C051
:100DA000F7FAF094F7F8F094A7019601688D798D21
:100DB0008A8D9B8D0E94C910882309F446C0C88E75
:100DC000D98EEA8EFB8E8E01005C1F4FA701960123
:100DD00060E074E284E799E40E94AE12F801608357
:100DE0007183828393838CA99DA9AEA9BFA918168C
:100DF00019061A061B064CF56C897D898E899F8918
:100E00009B01AC010E942F116B017C016C8D7D8DCB
:100E10008E8D9F8D9B01AC010E9442129B01AC0103
:100E2000C701B6010E94AE120E9420136CAB7DABCD
:100E30008EAB9FABCE01DF91CF911F910F91FF90B1
:100E4000EF90DF90CF900C94C204DF91CF911F916F
:100E50000F91FF90EF90DF90CF900895CF92DF92A7
:100E6000EF92FF92CF93DF93EC018CA19DA1AEA1F5
:100E7000BFA1892B8A2B8B2B41F480E0DF91CF918E
:100E8000FF90EF90DF90CF9008953FB7F894809156
:100E9000EA019091EB01A091EC01B091ED0126B532
:100EA000A89B05C02F3F19F00196A11DB11D3FBFA2
:100EB000BA2FA92F982F88276C017D01C20ED11C53
:100EC000E11CF11C42E0CC0CDD1CEE1CFF1C4A9521
:100ED000D1F788A599A5AAA5BBA5B701A601481B6E
:100EE000590B6A0B7B0B8CA19DA1AEA1BFA148172A
:100EF00059076A077B0708F4C0CF8C859D85AE85AE
:100F0000BF852A812223A1F00196A11DB11D8C87E6
:100F10009D87AE87BF874C855D856E857F85CE01B9
:100F20000E948204C8A6D9A6EAA6FBA681E0A6CFA5
:100F30000197A109B109EBCF0F931F93CF93DF93D3
:100F4000EC010E942E07882319F0CE010E94C204F2
:100F500020E030E0A9016C897D898E899F890E94FB
:100F6000C910811114C081E0088919892A893B8937
:100F70004C855D856E857F85041715072607370725
:100F800009F480E0DF91CF911F910F91089581E0E6
:100F9000F9CFFB0101900020E9F73197AF01461B23
:100FA000570BDC01ED91FC910280F381E02D099457
:100FB0000F931F93CF93DF938C01D0E0C0E06115B6
:100FC000710519F00E94C907EC016DE271E0C801DA
:100FD0000E94C9078C0F9D1FDF91CF911F910F9128
:100FE0000895CF93DF93EC01109200011092F3016A
:100FF00083E393E00E9414068FEE92E00E941406B1
:1010000083E393E00E94E40260E371E088819981C8
:10101000DF91CF910C94D8076115710511F00C94F4
:10102000C90790E080E008950F931F93CF93DF935B
:10103000EC018B016CE371E0888199810E940C08BE
:10104000B801888199810E940C0863E571E088816C
:101050009981DF91CF911F910F910C94D807AC012A
:10106000425F5F4FFC016085718590E080E00C94E9
:10107000140FCF92DF92EF92FF920F931F93CF93B3
:10108000DF93EC010E942F088C0181E08093000126
:101090008093F30183E393E00E94B60240E050E4C2
:1010A0006CE176E483E393E00E94BC06C8010E94F1
:1010B000ED0E0E94D0106B017C012091470330910E
:1010C00048034091490350914A030E94C910882364
:1010D00031F0B701A60183E393E00E944B0265E57E
:1010E00071E0888199810E940C08B80188819981FA
:1010F000DF91CF911F910F91FF90EF90DF90CF90F4
:101100000C94D807CF92DF92EF92FF920F931F9328
:10111000CF93DF93EC010E942F088C0181E0809334
:1011200000018093F3018FEE92E00E94B602C801A5
:101130000E94CF0EBC01990F880B990B0E94D01012
:10114000AB01BC018FEE92E00E94BC06C8010E9478
:10115000CF0EBC01990F880B990B0E94D0106B0128
:101160007C012091030330910403409105035091C9
:1011700006030E94C910882331F0B701A6018FEE43
:1011800092E00E944B026EE671E0888199810E9494
:101190000C08B80188819981DF91CF911F910F913F
:1011A000FF90EF90DF90CF900C94D8074F925F9212
:1011B0006F927F928F929F92AF92BF92CF92DF9267
:1011C000EF92FF92CF93DF93EC016A017B0120E065
:1011D00030E0A901CB01B6010E94C91087FF04C00D
:1011E000F7FAF094F7F8F0948C8C9D8CAE8CBF8C51
:1011F000A7019601C501B4010E94C910882309F412
:1012000049C06CA97DA98EA99FA90E94D0102B016D
:101210003C01A7019601C501B4010E94AE129B01D9
:10122000AC01C301B2010E942F110E9420136CABCC
:101230007DAB8EAB9FABA701960160E070E080E0D4
:1012400090E40E94AE120E94851326E53EE04DE236
:101250005FE30E942F1120E034E244E759E40E944A
:101260002F1168AF79AF8AAF9BAFCC8EDD8EEE8E3B
:10127000FF8ECE01DF91CF91FF90EF90DF90CF9066
:10128000BF90AF909F908F907F906F905F904F90A6
:101290000C94C204DF91CF91FF90EF90DF90CF903C
:1012A000BF90AF909F908F907F906F905F904F9086
:1012B00008954F925F926F927F92AF92BF92CF92BA
:1012C000DF92EF92FF920F931F93CF93DF93CDB7EF
:1012D000DEB7A1970FB6F894DEBF0FBECDBF7C017D
:1012E0000E942F088C01C7010E942F085C0181E039
:1012F000809300011092F3018FEE92E00E94B602FB
:10130000C5010E94CF0EBC01990F880B990B0E945A
:10131000D010AB01BC018FEE92E00E94BC06C80168
:101320000E94CB0E20E030E048EC54E40E942F11E4
:1013300020E030E040EA51E40E942F1120E030E04C
:1013400044EB53E40E94AE120E945B130E942013F0
:101350004090FF02509000036090010370900203E0
:10136000461657066806790661F06093FF0270938F
:10137000000380930103909302038FEE92E00E949A
:10138000C2046EE771E0D7018D919C910E940C0818
:10139000B801F701808191810E94D80761E971E06D
:1013A000D7018D919C910E940C08F701C080D180DB
:1013B000C8010E94CB0E20E030E048EC54E40E94CB
:1013C0002F1120E030E040EA51E40E942F1120E08C
:1013D00030E044EB53E40E94AE120E945B130E9483
:1013E00020132B013C0177FE51C0D601ED91FC91F9
:1013F0000190F081E02D6DE2C60109952227332787
:10140000A901241935094609570919A28E010F5D52
:101410001F4F9AE0492E512C612C712CCA01B90141
:10142000A30192010E94F513605DF80162938F01A0
:10143000211531054105510589F70115110521F0E7
:10144000B801C6010E94C90767E771E0F701808112
:1014500091810E940C08B501D7018D919C910E9449
:10146000D807A1960FB6F894DEBF0FBECDBFDF91AF
:10147000CF911F910F91FF90EF90DF90CF90BF9091
:10148000AF907F906F905F904F900895AC019B015B
:1014900019A28E010F5D1F4F8AE0482E512C612C3E
:1014A000712CCA01B901A30192010E94F513605D7C
:1014B000D8016E938D01211531054105510589F73C
:1014C000BCCF8F929F92AF92BF92EF92FF920F93F9
:1014D0001F93CF93DF93EC010E942F087C01CE0174
:1014E0000E942F088C0181E0809300011092F3018B
:1014F00083E393E00E94B602C8010E94CF0EBC01B4
:10150000990F880B990B0E94D010AB01BC0183E3AB
:1015100093E00E94BC06C7010E94CB0E20E030E0A1
:1015200048EC54E40E942F1120E030E040EA51E4FE
:101530000E942F1120E030E044EB53E40E94AE12F1
:101540000E945B130E9420138090430390904403F9
:10155000A0904503B090460386169706A806B906E4
:1015600061F0609343037093440380934503909329
:10157000460383E393E00E94C2046DE971E0888131
:1015800099810E940C08B701888199810E94D8072F
:1015900065E571E0888199810E940C08B801888115
:1015A0009981DF91CF911F910F91FF90EF90BF90A4
:1015B000AF909F908F900C94D8071F920F920FB608
:1015C0000F9211242F933F934F935F936F937F93C9
:1015D0008F939F93AF93BF93EF93FF9387E392E033
:1015E0000E947001FF91EF91BF91AF919F918F91F8
:1015F0007F916F915F914F913F912F910F900FBE0F
:101600000F901F9018951F920F920FB60F921124F2
:101610002F938F939F93EF93FF93E0914702F09165
:1016200048028081E0914D02F0914E0282FD1BC084
:101630009081809150028F5F8F73209151028217A9
:1016400041F0E0915002F0E0E95CFD4F958F80930E
:101650005002FF91EF919F918F912F910F900FBEAC
:101660000F901F9018958081F4CF1F920F920FB6A4
:101670000F9211242F933F938F939F93AF93BF9318
:101680008091EF019091F001A091F101B091F201F0
:101690003091EE0123E0230F2D3758F50196A11D5F
:1016A000B11D2093EE018093EF019093F001A09380
:1016B000F101B093F2018091EA019091EB01A091C8
:1016C000EC01B091ED010196A11DB11D8093EA01DD
:1016D0009093EB01A093EC01B093ED01BF91AF911A
:1016E0009F918F913F912F910F900FBE0F901F9060
:1016F000189526E8230F0296A11DB11DD2CF6F9237
:101700007F928F929F92AF92BF92CF92DF92EF9291
:10171000FF920F931F93CF93DF93C7E3D2E01B8217
:101720001A8288EE93E0A0E0B0E08C839D83AE83C4
:10173000BF8385E091E09983888385EC90E09D8765
:101740008C8784EC90E09F878E8780EC90E0998B6B
:10175000888B81EC90E09B8B8A8B82EC90E09D8B58
:101760008C8B86EC90E09F8B8E8B198E1A8E1B8E45
:101770001C8EE3E3F3E087E1E82E81E0F82EF182AE
:10178000E082662463946382148615861686178623
:10179000108A118A128A138A148A158A168A178A5D
:1017A000812C912C90E8A92E9FE3B92E808E918EEA
:1017B000A28EB38E148E158E168E178E80A291A2D5
:1017C000A2A2B3A214A215A216A217A201E010E0D1
:1017D00015A704A777247A9477A610A611A612A6B7
:1017E00013A682E0848325E0D22ED58234E0C32E76
:1017F000C682D78216A614AA15AA16AA17AA10AED0
:1018000011AE12AE13AE14AE15AE16AE17AE809278
:10181000730390927403A0927503B09276031282C0
:101820001086118612861386CF010E94B602B5017A
:10183000A40183E393E00E94D608EFEEF2E0F18288
:10184000E08263821486158616861786108A118AAE
:10185000128A138A148A158A168A178A808E918EA4
:10186000A28EB38E148E158E168E178E80A291A224
:10187000A2A2B3A214A215A216A217A215A704A78A
:1018800077A610A611A612A613A683E0848386E08D
:101890008583C682D78216A614AA15AA16AA17AAE5
:1018A00010AE11AE12AE13AE14AE15AE16AE17AE2C
:1018B00080922F0390923003A0923103B0923203B2
:1018C00012821086118612861386CF010E94B602FC
:1018D000B501A4018FEE92E00E94D608E4EDF2E09B
:1018E000D183C08387E192E0938382838FE190E08C
:1018F000958384838DE291E0978386838CE691E0E3
:101900009187808713861286158614861786168619
:10191000108A128A118A148A138A168A158A108EDE
:10192000178A118E128EE0E1F2E08BEB91E0918349
:10193000808389E398E093838283158214821682E0
:10194000E9E0F2E08EEB91E09183808381E69AE01A
:1019500093838283158214821682E2E0F2E082ECA5
:1019600091E09183808382E898E09383828315825B
:1019700014821682EBEFF1E085EC91E09183808395
:1019800089E599E093838283158214821682E4EFBD
:10199000F1E088E391E09183808381EF97E0938386
:1019A0008283158214821682DF91CF911F910F914D
:1019B000FF90EF90DF90CF90BF90AF909F908F906F
:1019C0007F906F900895789484B5826084BD84B5CB
:1019D000816084BD85B5826085BD85B5816085BD2A
:1019E00080916E00816080936E00109281008091E2
:1019F000810082608093810080918100816080936A
:101A00008100809180008160809380008091B1008E
:101A100084608093B1008091B00081608093B000B9
:101A200080917A00846080937A0080917A0082604D
:101A300080937A0080917A00816080937A0080910F
:101A40007A00806880937A001092C100E09147028A
:101A5000F091480282E08083E0914302F0914402D9
:101A60001082E0914502F091460280E1808310925D
:101A70004F02E0914B02F0914C0286E08083E091AE
:101A80004902F0914A02808180618083E09149029D
:101A9000F0914A02808188608083E0914902F09150
:101AA0004A02808180688083E0914902F0914A0275
:101AB00080818F7D808384E198E09093DF02809322
:101AC000DE0280E192E00E94C40089E092E00E9480
:101AD000C40082E092E00E94C4008BEF91E00E947B
:101AE000C40084EF91E00E94C40069EC71E087E3D8
:101AF00092E00E94D80710923B0310923C03C1E091
:101B0000C0936103D8E0D093620388E00E94A500EF
:101B1000609161036C27809162030E94FF0140E0A5
:101B200050E46CE176E483E393E00E94BC0640E07D
:101B300050E06AEF74E483E393E00E94D6081092C9
:101B4000F7021092F802C0931D03D0931E0388E0A1
:101B50000E94A50060911D036C2780911E030E94C6
:101B6000FF0140E050E46CE176E48FEE92E00E94E9
:101B7000BC0640E050E06AEF74E48FEE92E00E9411
:101B8000D60883E393E00E94E40200E010E0809135
:101B9000D4029091D502892B09F460C08091D402BF
:101BA0009091D502DC01ED91FC910084F185E02D4E
:101BB0000995181619060CF051C08091D402909125
:101BC000D502DC01ED91FC910284F385E02D0995AD
:101BD000BC011816190614F78091E0029091E102F9
:101BE000E091D602F091D7022091D8023091D9022B
:101BF0008217930764F59C012F5F3F4F3093E102FA
:101C00002093E002E80FF91F60832091E0023091F9
:101C1000E1022130310509F042C0E091E902F09182
:101C2000EA02A091D602B091D7023097C1F1C081EB
:101C3000D1819C91888198132EC00280F381E02D80
:101C400084ED92E00995E091D602F091D7021082DE
:101C50001092E1021092E0021092E40280910001E1
:101C6000882369F08091F301882309F48BC083E312
:101C700093E00E942E078FEE92E00E942E0701153E
:101C8000110509F484CF0E945C01882309F47FCFF9
:101C90000E9400007CCF0480F581E02DC6CFA0918A
:101CA000DA02B091DB029091E402FD01E90FF11D2F
:101CB00097FDFA954081042E000C550B64177507AB
:101CC00019F01092E4026ACF81E0890F8093E40258
:101CD000FD01E80FF11D87FDFA95808181115ECF2E
:101CE000FD0101900020E9F73197EA1BFB0B2E1B49
:101CF0003F0B8091D6029091D702280F391FF9012E
:101D000010826091DC027091DD0242EE52E080911F
:101D1000D6029091D7020E94140F7C01892BC9F042
:101D2000C091E502D091E602209709F1688179819E
:101D3000DB010D900020E9F7AD01461B570BC701F1
:101D40000E943C14892B79F4EA81FB8184ED92E0B6
:101D50000995E091D602F091D70210821092E1022B
:101D60001092E002AECF0C80DD81C02DDDCFE0917E
:101D7000DE02F091DF02309761F3B70184ED92E06B
:101D80000995E7CF83E393E00E949C078FEE92E0F2
:101D90000E949C0774CF662777270C94580FFC018C
:101DA00088279927E89421912032E9F3293010F00F
:101DB0002E30C8F32B3241F02D3239F4689404C030
:101DC0000E94500F820F911D219120532A30C0F3A1
:101DD0001EF4909581959F4F08951F93FC019927BC
:101DE0008827BC01E89411911032E9F3193010F002
:101DF0001E30C8F31B3251F01D3249F4689406C0FE
:101E00000E943B0F610F711D811D911D1191105397
:101E10001A30B0F33EF490958095709561957F4FA0
:101E20008F4F9F4F1F910895FA01A191B0810097A4
:101E300019F41097E1F0CD01DC01CD010D900020E7
:101E400011F4C00113C0FB012191222319F02015C8
:101E5000D9F7F3CFFB012191201519F41E921196A9
:101E600006C02223C1F70D900020A1F7D001FA018E
:101E7000A193B0830895592F482F372F262F660F2F
:101E8000771F881F991F660F771F881F991F620F82
:101E9000731F841F951F660F771F881F991F089552
:101EA0007AE0979F902D879F802D910D11240895A2
:101EB000B0E0A0E0EEE5FFE00C9401125C017B01D4
:101EC0006115710519F0DB018D939C9385010F5FFE
:101ED0001F4FF501D0818D2F90E00E94A8106C015A
:101EE000892BB9F5DD32B9F50F5F1F4FD50111967A
:101EF000DC91C1E05801F1E0AF1AB10843E050E0D5
:101F000060E770E0C5010E94B110892B69F5680196
:101F100082E0C80ED11C45E050E06BE670E0C601DF
:101F20000E94B110892B21F4680197E0C90ED11CE1
:101F3000E114F10419F0D701CD92DC9260E070E079
:101F400080E89FEFC111FFC060E070E080E89FE78C
:101F5000FAC05801BBCFDB3229F485010E5F1F4F59
:101F6000F501D181C0E0C6CF43E050E068E670E003
:101F7000C5010E94B110892BE9F0F80110E000E0E2
:101F800020E030E0A9015F01B0ED8B2E8D0E89E0DD
:101F90008815C8F19C2E689491F88C2F8870C2FF28
:101FA00016C0811102C00F5F1F4F3196D501DC9121
:101FB000C92DE9CFE114F10429F00E5F1F4FF7019D
:101FC0001183008360E070E080EC9FE7BCC0882351
:101FD00011F001501109A5E0B0E00E94F0119B0141
:101FE000AC01220F331F441F551F280D311D411D09
:101FF000511D283999E93907490799E15907A8F28C
:10200000C6609C2ED2CFAEEF8A1206C0C3FD3CC084
:102010009C2E689493F8C9CFDF7DD534A9F58081D3
:102020008D3239F4C061DF011296818162E070E087
:1020300006C0DF018B32C1F3119661E070E080537E
:102040005D01A61AB70A8A30F8F4E0E8CE16ECE093
:10205000DE065CF4B601660F771F660F771FC60EAB
:10206000D71ECC0CDD1CC80ED11C5D01FFEFAF1AD2
:10207000BF0A8C9180538A30A8F1C4FF03C0D19469
:10208000C194D1080C0D1D1DC1FF09C0E114F1045C
:1020900031F081E0A81AB108D701AD92BC92CA0113
:1020A000B9010E94CE10C370C33009F490584B019F
:1020B0005C0120E030E0A9010E94C910882309F4E6
:1020C00040C0CFE9D0E017FF05C011950195110977
:1020D000C7E8D0E06E01B8E1CB1AD10880E2E82E63
:1020E000F12C0FC0D501B1CFFE012591359145915D
:1020F00054910E191F09C501B4010E942F114B0103
:102100005C01D501C4010E151F0574F72497F594E1
:10211000E794CC16DD06A9F78A2F880F8B2F881F2E
:102120008F3F49F020E030E0A901C501B4010E94D1
:10213000C910811106C082E290E0909378038093E9
:102140007703C501B401CDB7DEB7ECE00C941D12E6
:1021500091110C949C11803219F089508550C8F768
:102160000895FB01DC014150504088F08D9181348D
:102170001CF08B350CF4805E659161341CF06B357E
:102180000CF4605E861B611171F3990B0895881B36
:10219000FCCF0E940B1108F481E00895E89409C077
:1021A00097FB3EF490958095709561957F4F8F4F8A
:1021B0009F4F9923A9F0F92F96E9BB279395F695A0
:1021C000879577956795B795F111F8CFFAF4BB0F1E
:1021D00011F460FF1BC06F5F7F4F8F4F9F4F16C082
:1021E000882311F096E911C0772321F09EE8872F0C
:1021F000762F05C0662371F096E8862F70E060E0C8
:102200002AF09A95660F771F881FDAF7880F969540
:10221000879597F90895990F0008550FAA0BE0E8E4
:10222000FEEF16161706E807F907C0F01216130698
:10223000E407F50798F0621B730B840B950B39F4D8
:102240000A2661F0232B242B252B21F408950A263E
:1022500009F4A140A6958FEF811D811D08950E946C
:1022600042110C94B6110E94A81138F00E94AF11CF
:1022700020F0952311F00C949F110C94A5111124BA
:102280000C94EA110E94C71170F3959FC1F3950F4A
:1022900050E0551F629FF001729FBB27F00DB11DEA
:1022A000639FAA27F00DB11DAA1F649F6627B00D7A
:1022B000A11D661F829F2227B00DA11D621F739F63
:1022C000B00DA11D621F839FA00D611D221F749F71
:1022D0003327A00D611D231F849F600D211D822FB8
:1022E000762F6A2F11249F5750409AF0F1F08823DF
:1022F0004AF0EE0FFF1FBB1F661F771F881F91500C
:102300005040A9F79E3F510580F00C949F110C940A
:10231000EA115F3FE4F3983ED4F38695779567958D
:10232000B795F795E7959F5FC1F7FE2B880F911D35
:102330009695879597F9089599278827089597F98D
:102340009F6780E870E060E008959FEF80EC08955B
:1023500000240A9416161706180609060895002484
:102360000A9412161306140605060895092E0394FE
:10237000000C11F4882352F0BB0F40F4BF2B11F472
:1023800060FF04C06F5F7F4F8F4F9F4F089557FDD1
:102390009058440F551F59F05F3F71F04795880FD3
:1023A00097FB991F61F09F3F79F08795089512166A
:1023B00013061406551FF2CF4695F1DF08C0161616
:1023C00017061806991FF1CF8695710561050894C7
:1023D0000895E894BB2766277727CB0197F90895DE
:1023E0000E943212A59F900DB49F900DA49F800D66
:1023F000911D112408952F923F924F925F926F92F8
:102400007F928F929F92AF92BF92CF92DF92EF9284
:10241000FF920F931F93CF93DF93CDB7DEB7CA1B05
:10242000DB0B0FB6F894DEBF0FBECDBF09942A8830
:10243000398848885F846E847D848C849B84AA84D8
:10244000B984C884DF80EE80FD800C811B81AA8165
:10245000B981CE0FD11D0FB6F894DEBF0FBECDBF30
:10246000ED010895A29FB001B39FC001A39F700D1D
:10247000811D1124911DB29F700D811D1124911D8C
:1024800008955058BB27AA270E9459120C94B611E0
:102490000E94A81138F00E94AF1120F039F49F3F3C
:1024A00019F426F40C94A5110EF4E095E7FB0C94B6
:1024B0009F11E92F0E94C71158F3BA1762077307DB
:1024C0008407950720F079F4A6F50C94E9110EF431
:1024D000E0950B2EBA2FA02D0B01B90190010C0134
:1024E000CA01A0011124FF27591B99F0593F50F44C
:1024F000503E68F11A16F040A22F232F342F4427A4
:10250000585FF3CF469537952795A795F04053959B
:10251000C9F77EF41F16BA0B620B730B840BBAF06B
:102520009150A1F0FF0FBB1F661F771F881FC2F7D6
:102530000EC0BA0F621F731F841F48F487957795EA
:102540006795B795F7959E3F08F0B0CF9395880FA4
:1025500008F09927EE0F9795879508950E94C2126B
:102560000C94B6110E94AF1158F00E94A81140F0CF
:1025700029F45F3F29F00C949F1151110C94EA113A
:102580000C94A5110E94C71168F39923B1F3552348
:1025900091F3951B550BBB27AA2762177307840776
:1025A00038F09F5F5F4F220F331F441FAA1FA9F30C
:1025B00035D00E2E3AF0E0E832D091505040E695FA
:1025C000001CCAF72BD0FE2F29D0660F771F881F5B
:1025D000BB1F261737074807AB07B0E809F0BB0B4E
:1025E000802DBF01FF2793585F4F3AF09E3F510562
:1025F00078F00C949F110C94EA115F3FE4F3983E3D
:10260000D4F3869577956795B795F7959F5FC9F74A
:10261000880F911D9695879597F90895E1E0660FCB
:10262000771F881FBB1F621773078407BA0720F044
:10263000621B730B840BBA0BEE1F88F7E0950895AD
:102640000E9427136894B1110C94EA1108950E9416
:10265000CF1188F09F5798F0B92F9927B751B0F054
:10266000E1F0660F771F881F991F1AF0BA95C9F716
:1026700014C0B13091F00E94E911B1E008950C94BA
:10268000E911672F782F8827B85F39F0B93FCCF36D
:10269000869577956795B395D9F73EF49095809593
:1026A000709561957F4F8F4F9F4F08950E940B113A
:1026B00008F48FEF08950E94CF11E8F09E37E8F0FC
:1026C0009639B8F49E3848F4672F782F8827985F9A
:1026D000F9CF86957795679593959539D0F3B62F71
:1026E000B1706B0F711D811D20F4879577956795EB
:1026F00093950C94C5130C94E0130C94EA1119F4FF
:1027000016F40C94A5110C94E0130E94CF11B8F3A9
:102710009923C9F3B6F39F57550B87FF0E94EE1319
:102720000024A0E640EA900180585695979528F439
:10273000805C660F771F881F20F026173707480731
:1027400030F4621B730B840B202931294A2BA69588
:1027500017940794202531254A2758F7660F771FCD
:10276000881F20F026173707480730F4620B730BD9
:10277000840B200D311D411DA09581F7B901842FD7
:102780009158880F969587950895882371F477233B
:1027900021F09850872B762F07C0662311F49927D4
:1027A0000DC09051862B70E060E02AF09A95660F7C
:1027B000771F881FDAF7880F9695879597F9089500
:1027C0009F3F31F0915020F4879577956795B795A5
:1027D000880F911D9695879597F9089591505040CF
:1027E000660F771F881FD2F70895A1E21A2EAA1B41
:1027F000BB1BFD010DC0AA1FBB1FEE1FFF1FA217B1
:10280000B307E407F50720F0A21BB30BE40BF50BAD
:10281000661F771F881F991F1A9469F76095709536
:10282000809590959B01AC01BD01CF010895052EC7
:1028300097FB1EF400940E942E1457FD07D00E94AF
:10284000F51307FC03D04EF40C942E1450954095CC
:10285000309521953F4F4F4F5F4F0895909580954C
:10286000709561957F4F8F4F9F4F0895EE0FFF1F1B
:102870000590F491E02D0994FB01DC01415050409A
:1028800030F08D910190801919F40020B9F7881B60
:10289000990B0895F894FFCF01000000009201F217
:1028A000001F01DF0150012E01420100000000E481
:1028B00002B602440482042E04FC03DB03A7038651
:1028C00003300301030D0A004D4F544F524553206E
:1028D0004F464600556E7265636F676E697A656430
:1028E00020636F6D6D616E64205B005D0056656CEA
:1028F0006F6369646164206D6F746F7220415A491F
:102900004D55543A2000454C45564143494F4E20C1
:1029100056656C3A2000454C45564143494F4E2080
:10292000616E67756C6F3A200020506F7369636940
:102930006F6E3A2000416E67756C6F20646573742A
:10294000696E6F206D6F746F7220415A494D5554F6
:102950003A2000415A00415A7000454C00454C70E5
:10296000004D6F746F7265732054656C6573636F8F
:1029700070696F20302E31202D3E205265616479C0
:02298000000055
:107E0000112484B714BE81FFF0D085E080938100F7
:107E100082E08093C00088E18093C10086E0809377
:107E2000C20080E18093C4008EE0C9D0259A86E02C
:107E300020E33CEF91E0309385002093840096BBD3
:107E4000B09BFECF1D9AA8958150A9F7CC24DD24C4
:107E500088248394B5E0AB2EA1E19A2EF3E0BF2EE7
:107E6000A2D0813461F49FD0082FAFD0023811F036
:107E7000013811F484E001C083E08DD089C08234E0
:107E800011F484E103C0853419F485E0A6D080C0E4
:107E9000853579F488D0E82EFF2485D0082F10E0AE
:107EA000102F00270E291F29000F111F8ED06801E7
:107EB0006FC0863521F484E090D080E0DECF843638
:107EC00009F040C070D06FD0082F6DD080E0C81688
:107ED00080E7D80618F4F601B7BEE895C0E0D1E017
:107EE00062D089930C17E1F7F0E0CF16F0E7DF06D8
:107EF00018F0F601B7BEE89568D007B600FCFDCFD4
:107F0000A601A0E0B1E02C9130E011968C91119780
:107F100090E0982F8827822B932B1296FA010C0160
:107F200087BEE89511244E5F5F4FF1E0A038BF0790
:107F300051F7F601A7BEE89507B600FCFDCF97BE46
:107F4000E89526C08437B1F42ED02DD0F82E2BD052
:107F50003CD0F601EF2C8F010F5F1F4F84911BD097
:107F6000EA94F801C1F70894C11CD11CFA94CF0C13
:107F7000D11C0EC0853739F428D08EE10CD085E9AC
:107F80000AD08FE07ACF813511F488E018D01DD067
:107F900080E101D065CF982F8091C00085FFFCCF94
:107FA0009093C60008958091C00087FFFCCF809118
:107FB000C00084FD01C0A8958091C6000895E0E648
:107FC000F0E098E1908380830895EDDF803219F02E
:107FD00088E0F5DFFFCF84E1DECF1F93182FE3DFCA
:107FE0001150E9F7F2DF1F91089580E0E8DFEE27F6
:047FF000FF270994CA
:027FFE00040479
:00000001FF
