:100000000C947B000C94A3000C94A3000C94A3000C
:100010000C94A3000C94A3000C94A3000C94A300D4
:100020000C94A3000C94A3000C94A3000C94A300C4
:100030000C94A3000C94A3000C94A3000C94A300B4
:100040000C94650B0C94A3000C94330B0C940D0BC7
:100050000C94A3000C94A3000C94A3000C94A30094
:100060000C94A3000C94A3004E414E494E495459A0
:10007000494E46CDCCCC3D0AD7233C17B7D1387773
:10008000CC2B329595E6241FB14F0A000020410089
:1000900000C84200401C4620BCBE4CCA1B0E5AAED3
:1000A000C59D740000000800020100000304070061
:1000B0000000000000000000000000250028002BC8
:1000C0000000000000240027002A000404040404A7
:1000D00004040402020202020203030303030301F5
:1000E00002040810204080010204081020010204CC
:1000F00008102000AF0B11241FBECFEFD8E0DEBFE9
:10010000CDBF23E0AEE0B2E001C01D92A23BB2073A
:10011000E1F712E0A0E0B1E0EAE7F9E202C0059001
:100120000D92AE30B107D9F710E0CBE7D0E004C0B4
:100130002197FE010E94A714CA37D107C9F70E9470
:100140003A0D0C94BB140C94000090E0FC01E152B9
:10015000FF4F249185539F4FFC018491882399F090
:1001600090E0880F991FFC01EF53FF4FA591B491C8
:10017000FC01E954FF4F859194918FB7F894EC916D
:10018000E22BEC938FBF0895CF93DF93DC0116969B
:100190002C9147E253E0E4E2F3E0C2E2D3E0211124
:1001A00006C046E253E0E0E2F3E0CEE1D3E0DC015A
:1001B00015961C921E92149728813981232B59F48D
:1001C0009183808399838883FA0180818F5F808304
:1001D000DF91CF910895C081D1819D838C839183DC
:1001E0008083F2CFAF92BF92CF92DF92EF92FF92D5
:1001F0000F931F93CF93DF936C017B018B01040F4F
:10020000151FEB015E01AE18BF08C017D10759F0EA
:100210006991D601ED91FC910190F081E02DC6012C
:100220000995892B79F7C501DF91CF911F910F9126
:10023000FF90EF90DF90CF90BF90AF900895FC01BA
:10024000538D448D252F30E0842F90E0821B930B3B
:10025000541710F0CF96089501970895FC01918DE1
:10026000828D981761F0A28DAE0FBF2FB11D5D96E4
:100270008C91928D9F5F9F73928F90E008958FEF86
:100280009FEF0895FC01918D828D981731F0828D3A
:10029000E80FF11D858D90E008958FEF9FEF089591
:1002A000FC01918D228D892F90E0805C9F4F821BF5
:1002B00091098F739927089580E792E00E94500179
:1002C00021E0892B09F420E0822F089580E090E05E
:1002D000892B29F00E945C0181110C940000089583
:1002E000FC01A48DA80FB92FB11DA35ABF4F2C91AB
:1002F000848D90E001968F739927848FA689B789A2
:100300002C93A089B1898C91837080648C93938D98
:10031000848D981306C00288F389E02D80818F7D3B
:1003200080830895EF92FF920F931F93CF93DF93F3
:10033000EC0181E0888F9B8D8C8D98131AC0E88921
:10034000F989808185FF15C09FB7F894EE89FF89F0
:100350006083E889F98980818370806480839FBF8E
:1003600081E090E0DF91CF911F910F91FF90EF908E
:100370000895F62E0B8D10E00F5F1F4F0F7311279E
:10038000E02E8C8D8E110CC00FB607FCFACFE889D9
:10039000F989808185FFF5CFCE010E947001F1CFF0
:1003A000EB8DEC0FFD2FF11DE35AFF4FF0829FB74D
:1003B000F8940B8FEA89FB8980818062CFCFCF933D
:1003C000DF93EC01888D8823B9F0AA89BB89E8897D
:1003D000F9898C9185FD03C0808186FD0DC00FB623
:1003E00007FCF7CF8C9185FFF2CF808185FFEDCFA1
:1003F000CE010E947001E9CFDF91CF91089590E086
:10040000FC01ED55FF4F2491FC01E152FF4F349167
:10041000FC01E553FF4FE491EE23C9F0222339F0AC
:10042000233001F1A8F4213019F1223029F1F0E054
:10043000EE0FFF1FE954FF4FA591B4918FB7F894C9
:10044000EC91611126C030953E233C938FBF0895F7
:100450002730A9F02830C9F0243049F78091800076
:100460008F7D03C0809180008F7780938000DFCFE5
:1004700084B58F7784BDDBCF84B58F7DFBCF809132
:10048000B0008F778093B000D2CF8091B0008F7D85
:10049000F9CF3E2BDACFCF93DF93FC0123812223C8
:1004A00029F1EC0184810E94A5008D810E94A500A4
:1004B0008B81843011F0883099F48E810E94A500E0
:1004C0008F810E94A5008FA58F3F81F00E94A5001B
:1004D0006EA581E068278FA5DF91CF910C94FF0175
:1004E000833011F0863079F78E81EBCFDF91CF9199
:1004F0000895CF93DF93FC0123812223A1F0EC0127
:100500000190F081E02D0480F581E02D60E00995F7
:100510008FA58F3F41F00E94A5006EA58FA5DF91AA
:10052000CF910C94FF01DF91CF910895DC01ED9103
:10053000FC912481358147705527662777274150E4
:10054000510961097109473051056105710560F470
:10055000FA01E355FD4F0C94A714B702B902BB0290
:10056000BD02BF02C102C30261E0F901099465E066
:10057000FCCF64E0FACF66E0F8CF62E0F6CF6AE045
:10058000F4CF68E0F2CF69E0F0CFCF93DF93EC01D6
:10059000CB01BA0126E030E040E050E00E94881430
:1005A000623071058105910589F16CF46115710561
:1005B00081059105D1F06130710581059105F9F052
:1005C000DF91CF910895643071058105910561F146
:1005D00024F1653071058105910591F7E881F98174
:1005E0000480F581E02D66E006C0E881F981048091
:1005F000F581E02D64E0CE01DF91CF910994E8818F
:10060000F9810480F581E02D65E0F5CFE881F9817D
:100610000480F581E02D61E0EECFE881F98104806E
:10062000F581E02D63E0E7CFE881F9810480F58171
:10063000E02D62E0E0CFDC01ED91FC910480F581DA
:10064000E02D437055276627772742305105610515
:10065000710571F0433051056105710559F0413064
:1006600051056105710511F065E0099466E0FDCF63
:100670006AE0FBCF69E0F9CFCF93DF93EC01CB01C8
:10068000BA0123E030E040E050E00E94881461307D
:1006900071058105910599F062307105810591051B
:1006A000A9F0672B682B692BC1F4E881F9810480DC
:1006B000F581E02D64E0CE01DF91CF910994E881CE
:1006C000F9810480F581E02D61E0F5CFE881F981C1
:1006D0000480F581E02D62E0EECFDF91CF910895A7
:1006E000DC01ED91FC910480F581E02D43705527EC
:1006F00066277727423051056105710571F0433057
:1007000051056105710559F04130510561057105CB
:1007100011F062E0099463E0FDCF61E0FBCF60E09F
:10072000F9CFCF93DF93EC01E881F9810480F58163
:10073000E02D8A8160E0811162E0CE010995E881B7
:10074000F9810480F581E02D8A8161E0811163E007
:10075000CE0109958CA59DA58230910538F0880FB2
:10076000991F880F991F05970197F1F7E881F98183
:100770000480F581E02D8A8160E0811162E0CE0184
:10078000DF91CF910994CF93DF93EC0120E030E02B
:10079000A9016C897D898E899F890E94C7131816CB
:1007A0002CF4E8A9F9A9DF91CF910994EAA9FBA952
:1007B000FACFCF92DF92EF92FF920F931F93CF93D6
:1007C000DF93DC011396CC91C43039F0C83059F175
:1007D000C33019F0C63049F1C2E08C010C5F1F4FE5
:1007E000F12CE12CC62ED12CD1E0F8016481C60198
:1007F0000E2C02C0959587950A94E2F780FD6D272F
:100800000F5F1F4F80810E94FF01BFEFEB1AFB0AB1
:10081000EC1658F3DF91CF911F910F91FF90EF905D
:10082000DF90CF900895C4E0D8CFC3E0D6CFDC01ED
:100830001396EC911397E93008F038C0F0E0ED5DC5
:10084000FB4F0C94A7142C04320438043E044404D7
:1008500056044A0456045004ED91FC910084F1853D
:10086000E02D0994ED91FC910284F385E02DF9CF00
:10087000ED91FC910484F585E02DF3CFED91FC9191
:100880000684F785E02DEDCFED91FC910088F1898C
:10089000E02DE7CFED91FC910288F389E02DE1CFC7
:1008A000ED91FC910488F589E02DDBCF08954F92FE
:1008B0005F926F927F92AF92BF92CF92DF92EF9250
:1008C000FF920F931F93CF93DF93EC015A018B019B
:1008D0009A01AB016C897D898E899F890E943A11AA
:1008E000882379F1488C598C6A8C7B8C7301620166
:1008F000F7FAF094F7F8F094A7019601B501C80152
:100900000E943A1187FD0CC0A3019201B501C801F4
:100910000E94C71373016201181614F06501780173
:1009200020E030E0A901C701B6010E943A1181110F
:1009300017C01CA21DA21EA21FA2CC8ADD8AEE8AAD
:10094000FF8ADF91CF911F910F91FF90EF90DF9081
:10095000CF90BF90AF907F906F905F904F90089531
:10096000A701960160E074E284E799E40E941F13F6
:100970009F770E9498136CA37DA38EA39FA311E081
:1009800020E030E0A901C701B6010E94C713181684
:100990000CF010E01A83D1CF4F925F926F927F924A
:1009A0008F929F92AF92BF92CF92DF92EF92FF927F
:1009B0000F931F93CF93DF93EC01C888D988EA88FF
:1009C000FB888C859D85AE85BF85C81AD90AEA0A41
:1009D000FB0A6C897D898E899F899B01AC010E94ED
:1009E000A0114B015C016C8D7D8D8E8D9F8D9B01C7
:1009F000AC010E94B3129B01AC01C501B4010E947D
:100A00001F130E949113C114D104E104F10409F0F1
:100A1000B1C062307105810591050CF0CBC01CA2FC
:100A20001DA21EA21FA21C8A1D8A1E8A1F8A1CAA22
:100A30001DAA1EAA1FAADF91CF911F910F91FF90AF
:100A4000EF90DF90CF90BF90AF909F908F907F906E
:100A50006F905F904F9008951016110612061306BE
:100A6000B4F46C157D058E059F051CF42A812111B7
:100A7000A1C09B01AC0188279927DC01821B930B45
:100A8000A40BB50B8CAB9DABAEABBFAB93C001154C
:100A900011052105310509F48DC06C157D058E0504
:100AA0009F050CF087C08A81882309F483C03095A4
:100AB0002095109501951F4F2F4F3F4F0CAB1DAB4D
:100AC0002EAB3FAB77C0011511052105310509F4A7
:100AD00071C08824992454018C189D08AE08BF0861
:100AE000681579058A059B050CF064C08A8181111F
:100AF00061C0DDCFCCACDDACEEACFFACA7019601A4
:100B0000C701B6010E94B3122B013C01C501B4011B
:100B10000E94411120E030E040E850E40E94A01122
:100B200020E030E040E85FE30E94B3129B01AC019B
:100B3000C301B2010E941F139B01AC01C701B601A2
:100B40000E94B2123B016C01FE01E05CFF4FE080AD
:100B5000F180028113819701A8010E94C713181622
:100B600014F473018601C701D8018CAF9DAFAEAFFD
:100B7000BFAF3AC00CA91DA92EA93FA91C141D0482
:100B80001E041F040CF468CF10161106120613067B
:100B90000CF099CF0027112798010C191D092E0977
:100BA0003F0960177107820793070CF062CF2A8113
:100BB00021115FCF8CA89DA8AEA8BFA88114910475
:100BC000A104B10409F096CF88AD99ADAAADBBAD33
:100BD0008CAF9DAFAEAFBFAF81E01C141D041E04EF
:100BE0001F040CF080E08A833FEF831A930AA30A64
:100BF000B30A8CAA9DAAAEAABFAACCACDDACEEAC5F
:100C0000FFACC701B6010E9498136CA37DA38EA30D
:100C10009FA3A701960160E074E284E799E40E9433
:100C20001F136C8B7D8B8E8B9F8B2A81211103CFA1
:100C300090586C8B7D8B8E8B9F8BFDCECF92DF92ED
:100C4000EF92FF920F931F93CF93DF93EC016A0112
:100C50007B0120E030E0A901CB01B6010E943A11EE
:100C600087FF04C0F7FAF094F7F8F094A701960113
:100C7000688D798D8A8D9B8D0E943A11882309F4A5
:100C800046C0C88ED98EEA8EFB8E8E01005C1F4F47
:100C9000A701960160E074E284E799E40E941F13C3
:100CA000F80160837183828393838CA99DA9AEA987
:100CB000BFA9181619061A061B064CF56C897D8902
:100CC0008E899F899B01AC010E94A0116B017C0160
:100CD0006C8D7D8D8E8D9F8D9B01AC010E94B3121A
:100CE0009B01AC01C701B6010E941F130E94911322
:100CF0006CAB7DAB8EAB9FABCE01DF91CF911F91E3
:100D00000F91FF90EF90DF90CF900C94CC04DF9187
:100D1000CF911F910F91FF90EF90DF90CF900895AA
:100D2000CF92DF92EF92FF92CF93DF93EC018CA1F1
:100D30009DA1AEA1BFA1892B8A2B8B2B41F480E012
:100D4000DF91CF91FF90EF90DF90CF9008953FB764
:100D5000F89480910E0290910F02A0911002B09130
:100D6000110226B5A89B05C02F3F19F00196A11DC1
:100D7000B11D3FBFBA2FA92F982F88276C017D0185
:100D8000C20ED11CE11CF11C42E0CC0CDD1CEE1C9F
:100D9000FF1C4A95D1F788A599A5AAA5BBA5B701BF
:100DA000A601481B590B6A0B7B0B8CA19DA1AEA120
:100DB000BFA1481759076A077B0708F4C0CF8C8585
:100DC0009D85AE85BF852A812223A1F00196A11DB4
:100DD000B11D8C879D87AE87BF874C855D856E85ED
:100DE0007F85CE010E941704C8A6D9A6EAA6FBA655
:100DF00081E0A6CF0197A109B109EBCF0F931F9313
:100E0000CF93DF93EC010E949006882319F0CE0166
:100E10000E94CC0420E030E0A9016C897D898E8994
:100E20009F890E943A11811114C081E008891989B3
:100E30002A893B894C855D856E857F85041715075A
:100E40002607370709F480E0DF91CF911F910F91BA
:100E5000089581E0F9CF0F931F93FC010089118958
:100E600022893389041715072607370741F0408B7D
:100E7000518B628B738B1F910F910C94CC041F913B
:100E80000F9108954F925F926F927F928F929F92EF
:100E9000AF92BF92CF92DF92EF92FF92CF93DF9308
:100EA000EC014C885D886E887F8820E030E0A901E5
:100EB000C301B2010E943A11882309F447C0A3017B
:100EC0009201C301B2010E94A0116B017C016C8DE3
:100ED0007D8D8E8D9F8D9B01AC010E94B3129B0175
:100EE000AC01C701B6010E941F130E9491136B0150
:100EF0007C018C849D84AE84BF8420E030E0A90115
:100F0000C301B2010E94C713B701A6011816CCF4A1
:100F10004F5F5F4F6F4F7F4F480D591D6A1D7B1DFF
:100F2000CE01DF91CF91FF90EF90DF90CF90BF90F7
:100F3000AF909F908F907F906F905F904F900C94A8
:100F40002B074095509560957095E6CFDF91CF9136
:100F5000FF90EF90DF90CF90BF90AF909F908F90D9
:100F60007F906F905F904F900895FB01019000205B
:100F7000E9F73197AF01461B570BDC01ED91FC916E
:100F80000280F381E02D09940F931F93CF93DF9399
:100F90008C01D0E0C0E06115710519F00E94B50721
:100FA000EC016DE271E0C8010E94B5078C0F9D1F36
:100FB000DF91CF911F910F910895CF93DF93EC01B3
:100FC00010920001109217028CE693E00E944207F3
:100FD00088E293E00E9442078CE693E00E94790247
:100FE00060E371E088819981DF91CF910C94C4070F
:100FF0006115710511F00C94B50790E080E008953B
:10100000CF93DF93EC0181E08093000110921702EF
:1010100088E293E00E944B0240E050E06AE774E40B
:1010200088E293E00E941E0640E050E0BA0188E2A8
:1010300093E00E942B078CE693E00E944B0240E075
:1010400050E06AE774E48CE693E00E941E0640E0FC
:1010500050E0BA018CE693E00E942B076CE371E04C
:1010600088819981DF91CF910C94F8070F931F939A
:10107000CF93DF93EC018B016AE471E08881998161
:101080000E94F807B801888199810E94F80761E6FB
:1010900071E088819981DF91CF911F910F910C941C
:1010A000C407AC01425F5F4FFC016085718590E031
:1010B00080E00C94850F0F931F93CF93DF93EC0187
:1010C0000E9451088C0181E08093000180931702F7
:1010D0008CE693E00E944B0240E050E06AE774E443
:1010E0008CE693E00E941E06C8010E945E0F0E94DB
:1010F0004111AB01BC018CE693E00E94570463E60A
:1011000071E0888199810E94F807B80188819981EE
:10111000DF91CF911F910F910C94C4070F931F93F0
:10112000CF93DF93EC010E9451088C0181E0809302
:1011300000018093170288E293E00E944B0240E096
:1011400050E06AE774E488E293E00E941E06C8015A
:101150000E94400FBC01990F880B990B0E9441110E
:10116000AB01BC0188E293E00E9457046CE771E098
:10117000888199810E94F807B80188819981DF915F
:10118000CF911F910F910C94C4074F925F926F9271
:101190007F928F929F92AF92BF92CF92DF92EF9207
:1011A000FF92CF93DF93EC016A017B0120E030E0F6
:1011B000A901CB01B6010E943A1187FF04C0F7FADA
:1011C000F094F7F8F0948C8C9D8CAE8CBF8CA701BA
:1011D0009601C501B4010E943A11882309F449C05F
:1011E0006CA97DA98EA99FA90E9441112B013C01E8
:1011F000A7019601C501B4010E941F139B01AC0118
:10120000C301B2010E94A0110E9491136CAB7DAB8F
:101210008EAB9FABA701960160E070E080E090E4A8
:101220000E941F130E94F61326E53EE04DE25FE3A5
:101230000E94A01120E034E244E759E40E94A0118A
:1012400068AF79AF8AAF9BAFCC8EDD8EEE8EFF8E0E
:10125000CE01DF91CF91FF90EF90DF90CF90BF90C4
:10126000AF909F908F907F906F905F904F900C9475
:10127000CC04DF91CF91FF90EF90DF90CF90BF90A3
:10128000AF909F908F907F906F905F904F90089558
:1012900020E030E048E453E40E94A01120E030E078
:1012A00040E851E40E94A01120E030E040EA51E41F
:1012B0000E94A01120E030E044EB53E40E941F1391
:1012C0000E94CC130E9491130895EF92FF920F9306
:1012D0001F93CF93DF93EC010E9451087C01CE0154
:1012E0000E9451088C0181E0809300011092170246
:1012F0008CE693E00E944B02C8010E94400FBC01A3
:10130000990F880B990B0E944111AB01BC018CE62F
:1013100093E00E941E06C7010E943C0F0E944809EC
:10132000AB01BC018CE693E00E942B0765E871E0FD
:10133000888199810E94F807B701888199810E946C
:10134000C40763E671E0888199810E94F807B801BB
:1013500088819981DF91CF911F910F91FF90EF903C
:101360000C94C407CF92DF92EF92FF920F931F93DA
:10137000CF93DF93EC010E9451088C0181E08093B0
:101380000001109217028CE693E00E944B0240E0AD
:1013900050E06AE774E48CE693E00E941E06C09079
:1013A0007803D0907903E0907A03F0907B03C80132
:1013B0000E943C0F0E944809AB01BC014C0D5D1D11
:1013C0006E1D7F1D8CE693E00E942B0763EA71E09F
:1013D000888199810E94F807B80188819981DF91FD
:1013E000CF911F910F91FF90EF90DF90CF900C94D1
:1013F000C407CF92DF92EF92FF920F931F93CF9388
:10140000DF93EC010E9451088C0181E08093000180
:101410001092170288E293E00E944B0240E050E0F5
:101420006AE774E488E293E00E941E06C0903403E9
:10143000D0903503E0903603F0903703C8010E9446
:101440003C0F0E944809AB01BC014C0D5D1D6E1D97
:101450007F1D88E293E00E942B0763EA71E0888198
:1014600099810E94F807B80188819981DF91CF9115
:101470001F910F91FF90EF90DF90CF900C94C407D5
:101480004F925F926F927F92AF92BF92CF92DF9214
:10149000EF92FF920F931F93CF93DF93CDB7DEB7F9
:1014A000A1970FB6F894DEBF0FBECDBF7C010E949E
:1014B00051088C01C7010E9451085C0181E08093B2
:1014C00000011092170288E293E00E944B02C501CE
:1014D0000E94400FBC01990F880B990B0E9441118B
:1014E000AB01BC0188E293E00E941E06C8010E9485
:1014F0003C0F0E944809AB01BC0188E293E00E94C6
:101500002B076CEA71E0D7018D919C910E94F8073E
:10151000B801F701808191810E94C4076FEB71E0EF
:10152000D7018D919C910E94F807F701C080D1806E
:10153000C8010E943C0F0E9448092B013C0177FE24
:1015400051C0D601ED91FC910190F081E02D6DE24A
:10155000C601099522273327A9012419350946090F
:10156000570919A28E010F5D1F4F9AE0492E512C89
:10157000612C712CCA01B901A30192010E94661469
:10158000605DF80162938F01211531054105510518
:1015900089F70115110521F0B801C6010E94B507B0
:1015A0006BEC71E0F701808191810E94F807B50131
:1015B000D7018D919C910E94C407A1960FB6F89413
:1015C000DEBF0FBECDBFDF91CF911F910F91FF9076
:1015D000EF90DF90CF90BF90AF907F906F905F9033
:1015E0004F900895AC019B0119A28E010F5D1F4F12
:1015F0008AE0482E512C612C712CCA01B901A3013B
:1016000092010E946614605DD8016E938D012115D0
:1016100031054105510589F7BCCF1F920F920FB6D6
:101620000F9211242F933F934F935F936F937F9368
:101630008F939F93AF93BF93EF93FF9380E792E0D5
:101640000E947001FF91EF91BF91AF919F918F9197
:101650007F916F915F914F913F912F910F900FBEAE
:101660000F901F9018951F920F920FB60F92112492
:101670002F938F939F93EF93FF93E0918002F091CC
:1016800081028081E0918602F091870282FD1BC079
:101690009081809189028F5F8F7320918A028217D7
:1016A00041F0E0918902F0E0E059FD4F958F809381
:1016B0008902FF91EF919F918F912F910F900FBE13
:1016C0000F901F9018958081F4CF1F920F920FB644
:1016D0000F9211242F933F938F939F93AF93BF93B8
:1016E0008091130290911402A0911502B0911602FC
:1016F0003091120223E0230F2D3758F50196A11DDA
:10170000B11D209312028093130290931402A093B0
:101710001502B093160280910E0290910F02A091D3
:101720001002B09111020196A11DB11D80930E020D
:1017300090930F02A0931002B0931102BF91AF914A
:101740009F918F913F912F910F900FBE0F901F90FF
:10175000189526E8230F0296A11DB11DD2CF6F92D6
:101760007F928F929F92AF92BF92CF92DF92EF9231
:10177000FF920F931F93CF93DF93C0E7D2E01B82BA
:101780001A8288EE93E0A0E0B0E08C839D83AE8364
:10179000BF8385E091E09983888385EC90E09D8705
:1017A0008C8784EC90E09F878E8780EC90E0998B0B
:1017B000888B81EC90E09B8B8A8B82EC90E09D8BF8
:1017C0008C8B86EC90E09F8B8E8B198E1A8E1B8EE5
:1017D0001C8EECE6F3E087E1E82E81E0F82EF18242
:1017E000E0826624639463821486158616861786C3
:1017F000108A118A128A138A148A158A168A178AFD
:10180000812C912C90E8A92E9FE3B92E808E918E89
:10181000A28EB38E148E158E168E178E80A291A274
:10182000A2A2B3A214A215A216A217A201E010E070
:1018300015A704A777247A9477A610A611A612A656
:1018400013A682E0848325E0D22ED58234E0C32E15
:10185000C682D78216A614AA15AA16AA17AA10AE6F
:1018600011AE12AE13AE14AE15AE16AE17AE809218
:10187000AC039092AD03A092AE03B092AF0312827C
:101880001086118612861386CF010E944B02B50185
:10189000A4018CE693E00E94C508E8E2F3E0F1823F
:1018A000E08263821486158616861786108A118A4E
:1018B000128A138A148A158A168A178A808E918E44
:1018C000A28EB38E148E158E168E178E80A291A2C4
:1018D000A2A2B3A214A215A216A217A215A704A72A
:1018E00077A610A611A612A613A683E0848386E02D
:1018F0008583C682D78216A614AA15AA16AA17AA85
:1019000010AE11AE12AE13AE14AE15AE16AE17AECB
:101910008092680390926903A0926A03B0926B036D
:1019200012821086118612861386CF010E944B0206
:10193000B501A40188E293E00E94C508EDE0F3E060
:10194000D183C08380E592E0938382838FE190E02E
:10195000958384838DE291E0978386838AEA91E080
:1019600091878087138612861586148617861686B9
:10197000108A128A118A148A138A168A158A108E7E
:10198000178A118E128EE9E4F2E082ED91E09183E4
:1019900080838BE598E0938382831582148216827C
:1019A000E2E4F2E085ED91E09183808385E699E0C1
:1019B00093838283158214821682EBE3F2E089ED31
:1019C00091E09183808382EB99E0938382831582F7
:1019D00014821682E4E3F2E08DED91E0918380833E
:1019E0008EE898E093838283158214821682EDE25A
:1019F000F2E080EE91E09183808380E49AE093832B
:101A00008283158214821682E6E2F2E084EE91E08F
:101A10009183808389EF99E0938382831582148276
:101A20001682EFE1F2E088EE91E09183808380E01E
:101A300098E093838283158214821682E8E1F2E0B3
:101A400088E391E0918380838DED97E09383828397
:101A5000158214821682DF91CF911F910F91FF9012
:101A6000EF90DF90CF90BF90AF909F908F907F903E
:101A70006F900895789484B5826084BD84B5816048
:101A800084BD85B5826085BD85B5816085BD809149
:101A90006E00816080936E001092810080918100C1
:101AA00082608093810080918100816080938100B9
:101AB000809180008160809380008091B10084607B
:101AC0008093B1008091B00081608093B0008091DC
:101AD0007A00846080937A0080917A00826080939B
:101AE0007A0080917A00816080937A0080917A00F8
:101AF000806880937A001092C100E0918002F0919A
:101B0000810282E08083E0917C02F0917D0210826C
:101B1000E0917E02F0917F0280E180831092880242
:101B2000E0918402F091850286E08083E091820258
:101B3000F0918302808180618083E0918202F09144
:101B40008302808188608083E0918202F091830229
:101B5000808180688083E0918202F091830280819D
:101B60008F7D808386E398E090931803809317031A
:101B700089E492E00E94C40082E492E00E94C400E2
:101B80008BE392E00E94C40084E392E00E94C400D0
:101B90008DE292E00E94C40086E292E00E94C400BE
:101BA0008FE192E00E94C40088E192E00E94C400AC
:101BB0006DEE71E080E792E00E94C407109274031A
:101BC00010927503C1E0C0939A03D8E0D0939B03B1
:101BD00088E00E94A50060919A036C2780919B0386
:101BE0000E94FF0140E050E06AE774E48CE693E075
:101BF0000E941E0640E050E06AEF73E48CE693E03A
:101C00000E94C50840E050E0BA018CE693E00E94D3
:101C100057041092300310923103C0935603D093AF
:101C2000570388E00E94A500609156036C278091BD
:101C300057030E94FF0140E050E06AE774E488E245
:101C400093E00E941E0640E050E06AEF73E488E2F1
:101C500093E00E94C50840E050E0BA0188E293E0BA
:101C60000E9457048CE693E00E94790200E010E0A5
:101C700080910D0390910E03892B09F460C080912F
:101C80000D0390910E03DC01ED91FC910084F18530
:101C9000E02D0995181619060CF051C080910D031E
:101CA00090910E03DC01ED91FC910284F385E02D0F
:101CB0000995BC011816190614F780911903909123
:101CC0001A03E0910F03F09110032091110330915A
:101CD00012038217930764F59C012F5F3F4F3093E7
:101CE0001A0320931903E80FF91F60832091190349
:101CF00030911A032130310509F042C0E0912203EE
:101D0000F0912303A0910F03B09110033097C1F11C
:101D1000C081D1819C91888198132EC00280F3816B
:101D2000E02D8DE093E00995E0910F03F091100311
:101D3000108210921A031092190310921D038091C1
:101D40000001882369F080911702882309F48BC071
:101D50008CE693E00E94900688E293E00E94900651
:101D60000115110509F484CF0E945C01882309F450
:101D70007FCF0E9400007CCF0480F581E02DC6CF8C
:101D8000A0911303B091140390911D03FD01E90F7D
:101D9000F11D97FDFA954081042E000C550B641738
:101DA000750719F010921D036ACF81E0890F8093A7
:101DB0001D03FD01E80FF11D87FDFA95808181115A
:101DC0005ECFFD0101900020E9F73197EA1BFB0B84
:101DD0002E1B3F0B80910F0390911003280F391F8A
:101DE000F901108260911503709116034BE153E0E5
:101DF00080910F03909110030E94850F7C01892B25
:101E0000C9F0C0911E03D0911F03209709F168818A
:101E10007981DB010D900020E9F7AD01461B570BDE
:101E2000C7010E94AD14892B79F4EA81FB818DE012
:101E300093E00995E0910F03F09110031082109246
:101E40001A0310921903AECF0C80DD81C02DDDCFB7
:101E5000E0911703F0911803309761F3B7018DE01B
:101E600093E00995E7CF8CE693E00E94FE0688E2B6
:101E700093E00E94FE0674CF662777270C94C90F63
:101E8000FC0188279927E89421912032E9F3293031
:101E900010F02E30C8F32B3241F02D3239F4689413
:101EA00004C00E94C10F820F911D219120532A303E
:101EB000C0F31EF4909581959F4F08951F93FC01E8
:101EC00099278827BC01E89411911032E9F3193061
:101ED00010F01E30C8F31B3251F01D3249F46894E3
:101EE00006C00E94AC0F610F711D811D911D1191E3
:101EF00010531A30B0F33EF490958095709561952B
:101F00007F4F8F4F9F4F1F910895FA01A191B0818C
:101F1000009719F41097E1F0CD01DC01CD010D908F
:101F2000002011F4C00113C0FB012191222319F0FC
:101F30002015D9F7F3CFFB012191201519F41E923A
:101F4000119606C02223C1F70D900020A1F7D00101
:101F5000FA01A193B0830895592F482F372F262FC8
:101F6000660F771F881F991F660F771F881F991F9D
:101F7000620F731F841F951F660F771F881F991F9D
:101F800008957AE0979F902D879F802D910D1124C1
:101F90000895B0E0A0E0EFECFFE00C9472125C0159
:101FA0007B016115710519F0DB018D939C9385010F
:101FB0000F5F1F4FF501D0818D2F90E00E94191106
:101FC0006C01892BB9F5DD32B9F50F5F1F4FD501D3
:101FD0001196DC91C1E05801F1E0AF1AB10843E07D
:101FE00050E060E770E0C5010E942211892B69F57D
:101FF000680182E0C80ED11C45E050E06BE670E05D
:10200000C6010E942211892B21F4680197E0C90EB4
:10201000D11CE114F10419F0D701CD92DC9260E0FB
:1020200070E080E89FEFC111FFC060E070E080E8E1
:102030009FE7FAC05801BBCFDB3229F485010E5F60
:102040001F4FF501D181C0E0C6CF43E050E068E604
:1020500070E0C5010E942211892BE9F0F80110E01F
:1020600000E020E030E0A9015F01B0ED8B2E8D0E85
:1020700089E08815C8F19C2E689491F88C2F88709F
:10208000C2FF16C0811102C00F5F1F4F3196D501EC
:10209000DC91C92DE9CFE114F10429F00E5F1F4F47
:1020A000F7011183008360E070E080EC9FE7BCC023
:1020B000882311F001501109A5E0B0E00E946112DF
:1020C0009B01AC01220F331F441F551F280D311DEA
:1020D000411D511D283999E93907490799E15907E7
:1020E000A8F2C6609C2ED2CFAEEF8A1206C0C3FD06
:1020F0003CC09C2E689493F8C9CFDF7DD534A9F5F8
:1021000080818D3239F4C061DF011296818162E0F5
:1021100070E006C0DF018B32C1F3119661E070E020
:1021200080535D01A61AB70A8A30F8F4E0E8CE16AB
:10213000ECE0DE065CF4B601660F771F660F771FD2
:10214000C60ED71ECC0CDD1CC80ED11C5D01FFEFE6
:10215000AF1ABF0A8C9180538A30A8F1C4FF03C024
:10216000D194C194D1080C0D1D1DC1FF09C0E1140B
:10217000F10431F081E0A81AB108D701AD92BC9208
:10218000CA01B9010E943F11C370C33009F49058CD
:102190004B015C0120E030E0A9010E943A11882344
:1021A00009F440C0CFE9D0E017FF05C011950195B3
:1021B0001109C7E8D0E06E01B8E1CB1AD10880E27E
:1021C000E82EF12C0FC0D501B1CFFE01259135913C
:1021D000459154910E191F09C501B4010E94A01127
:1021E0004B015C01D501C4010E151F0574F724973E
:1021F000F594E794CC16DD06A9F78A2F880F8B2F6C
:10220000881F8F3F49F020E030E0A901C501B401EB
:102210000E943A11811106C082E290E09093B103CE
:102220008093B003C501B401CDB7DEB7ECE00C94E8
:102230008E1291110C940D12803219F08950855034
:10224000C8F70895FB01DC014150504088F08D91A2
:1022500081341CF08B350CF4805E659161341CF088
:102260006B350CF4605E861B611171F3990B089558
:10227000881BFCCF0E947C1108F481E00895E8944B
:1022800009C097FB3EF490958095709561957F4FBE
:102290008F4F9F4F9923A9F0F92F96E9BB2793956C
:1022A000F695879577956795B795F111F8CFFAF47C
:1022B000BB0F11F460FF1BC06F5F7F4F8F4F9F4FAD
:1022C00016C0882311F096E911C0772321F09EE80B
:1022D000872F762F05C0662371F096E8862F70E071
:1022E00060E02AF09A95660F771F881FDAF7880F4B
:1022F0009695879597F90895990F0008550FAA0BA1
:10230000E0E8FEEF16161706E807F907C0F0121608
:102310001306E407F50798F0621B730B840B950B0B
:1023200039F40A2661F0232B242B252B21F4089560
:102330000A2609F4A140A6958FEF811D811D0895FD
:102340000E94B3110C9427120E94191238F00E94B7
:10235000201220F0952311F00C9410120C941612F8
:1023600011240C945B120E94381270F3959FC1F3F4
:10237000950F50E0551F629FF001729FBB27F00D33
:10238000B11D639FAA27F00DB11DAA1F649F662788
:10239000B00DA11D661F829F2227B00DA11D621FD7
:1023A000739FB00DA11D621F839FA00D611D221F91
:1023B000749F3327A00D611D231F849F600D211D75
:1023C000822F762F6A2F11249F5750409AF0F1F0F8
:1023D00088234AF0EE0FFF1FBB1F661F771F881F61
:1023E00091505040A9F79E3F510580F00C94101277
:1023F0000C945B125F3FE4F3983ED4F38695779597
:102400006795B795F795E7959F5FC1F7FE2B880F06
:10241000911D9695879597F908959927882708958E
:1024200097F99F6780E870E060E008959FEF80EC87
:10243000089500240A94161617061806090608952A
:1024400000240A9412161306140605060895092E90
:102450000394000C11F4882352F0BB0F40F4BF2BFF
:1024600011F460FF04C06F5F7F4F8F4F9F4F08953F
:1024700057FD9058440F551F59F05F3F71F0479535
:10248000880F97FB991F61F09F3F79F0879508951A
:10249000121613061406551FF2CF4695F1DF08C039
:1024A000161617061806991FF1CF86957105610556
:1024B00008940895E894BB2766277727CB0197F9FE
:1024C00008950E94A312A59F900DB49F900DA49F04
:1024D000800D911D112408952F923F924F925F928B
:1024E0006F927F928F929F92AF92BF92CF92DF9224
:1024F000EF92FF920F931F93CF93DF93CDB7DEB789
:10250000CA1BDB0B0FB6F894DEBF0FBECDBF09941C
:102510002A88398848885F846E847D848C849B8473
:10252000AA84B984C884DF80EE80FD800C811B8181
:10253000AA81B981CE0FD11D0FB6F894DEBF0FBEB0
:10254000CDBFED010895A29FB001B39FC001A39F2D
:10255000700D811D1124911DB29F700D811D1124DC
:10256000911D08955058BB27AA270E94CA120C94A7
:1025700027120E94191238F00E94201220F039F41C
:102580009F3F19F426F40C9416120EF4E095E7FB25
:102590000C941012E92F0E94381258F3BA176207F0
:1025A00073078407950720F079F4A6F50C945A1266
:1025B0000EF4E0950B2EBA2FA02D0B01B90190015E
:1025C0000C01CA01A0011124FF27591B99F0593FA2
:1025D00050F4503E68F11A16F040A22F232F342FEA
:1025E0004427585FF3CF469537952795A795F04038
:1025F0005395C9F77EF41F16BA0B620B730B840B4D
:10260000BAF09150A1F0FF0FBB1F661F771F881F04
:10261000C2F70EC0BA0F621F731F841F48F487955C
:1026200077956795B795F7959E3F08F0B0CF93954E
:10263000880F08F09927EE0F9795879508950E94C7
:1026400033130C9427120E94201258F00E94191282
:1026500040F029F45F3F29F00C94101251110C94B2
:102660005B120C9416120E94381268F39923B1F38E
:10267000552391F3951B550BBB27AA2762177307A8
:10268000840738F09F5F5F4F220F331F441FAA1F3C
:10269000A9F335D00E2E3AF0E0E832D091505040F8
:1026A000E695001CCAF72BD0FE2F29D0660F771FA6
:1026B000881FBB1F261737074807AB07B0E809F08C
:1026C000BB0B802DBF01FF2793585F4F3AF09E3F11
:1026D000510578F00C9410120C945B125F3FE4F3F8
:1026E000983ED4F3869577956795B795F7959F5F54
:1026F000C9F7880F911D9695879597F90895E1E0A0
:10270000660F771F881FBB1F621773078407BA07FE
:1027100020F0621B730B840BBA0BEE1F88F7E09559
:1027200008950E9498136894B1110C945B12089557
:102730000E94401288F09F5798F0B92F9927B751FF
:10274000B0F0E1F0660F771F881F991F1AF0BA9555
:10275000C9F714C0B13091F00E945A12B1E0089547
:102760000C945A12672F782F8827B85F39F0B93F39
:10277000CCF3869577956795B395D9F73EF4909508
:102780008095709561957F4F8F4F9F4F08950E9460
:102790007C1108F48FEF08950E944012E8F09E37F4
:1027A000E8F09639B8F49E3848F4672F782F8827D8
:1027B000985FF9CF86957795679593959539D0F37E
:1027C000B62FB1706B0F711D811D20F48795779521
:1027D000679593950C9436140C9451140C945B12D9
:1027E00019F416F40C9416120C9451140E94401211
:1027F000B8F39923C9F3B6F39F57550B87FF0E948F
:102800005F140024A0E640EA900180585695979501
:1028100028F4805C660F771F881F20F02617370783
:10282000480730F4621B730B840B202931294A2B93
:10283000A69517940794202531254A2758F7660F47
:10284000771F881F20F026173707480730F4620BE0
:10285000730B840B200D311D411DA09581F7B9012B
:10286000842F9158880F969587950895882371F441
:10287000772321F09850872B762F07C0662311F419
:1028800099270DC09051862B70E060E02AF09A9550
:10289000660F771F881FDAF7880F9695879597F947
:1028A00008959F3F31F0915020F487957795679573
:1028B000B795880F911D9695879597F90895915032
:1028C0005040660F771F881FD2F70895A1E21A2E95
:1028D000AA1BBB1BFD010DC0AA1FBB1FEE1FFF1FC4
:1028E000A217B307E407F50720F0A21BB30BE40B14
:1028F000F50B661F771F881F991F1A9469F760955B
:102900007095809590959B01AC01BD01CF01089514
:10291000052E97FB1EF400940E949F1457FD07D0CC
:102920000E94661407FC03D04EF40C949F1450953B
:102930004095309521953F4F4F4F5F4F08959095AB
:102940008095709561957F4F8F4F9F4F0895EE0F43
:10295000FF1F0590F491E02D0994FB01DC0141502B
:10296000504030F08D910190801919F40020B9F792
:0A297000881B990B0895F894FFCF1F
:10297A0001000000009201F2001F01DF0150012E48
:10298A000142010000000079024B02D9031704C377
:10299A0003910370033C031B03C50296020D0A0050
:1029AA004D4F544F524553204F46460059656E6469
:1029BA006F206120436173612000556E7265636FF9
:1029CA00676E697A656420636F6D6D616E64205B02
:1029DA00005D0056656C6F6369646164206D6F7495
:1029EA006F7220415A494D55543A2000454C207681
:1029FA00656C3A2000416E67756C6F20646573746C
:102A0A00696E6F206D6F746F7220415A494D55542B
:102A1A003A20004D756576653A202000454C4556AA
:102A2A004143494F4E20616E67756C6F3A20002012
:102A3A00506F736963696F6E3A20002056656C3A6D
:102A4A002000415A00415A7000415A6100454C0029
:102A5A00454C7000454C6100484F4D45004D6F7420
:102A6A006F7265732054656C6573636F70696F204C
:0E2A7A00302E31202D3E20526561647900001F
:00000001FF
