:100000000C945D000C9485000C9485000C94850084
:100010000C9485000C9485000C9485000C9485004C
:100020000C9485000C9485000C9485000C9485003C
:100030000C9485000C9485000C9485000C9485002C
:100040000C94510A0C9485000C941F0A0C94F90925
:100050000C9485000C9485000C9485000C9485000C
:100060000C9485000C94850000000008000201003B
:100070000003040700000000000000000000000072
:10008000250028002B0000000000240027002A0083
:10009000040404040404040402020202020203032E
:1000A0000303030301020408102040800102040836
:1000B00010200102040810209B0A11241FBECFEF5C
:1000C000D8E0DEBFCDBF11E0A0E0B1E0E0ECF2E2AD
:1000D00002C005900D92AE3DB107D9F723E0AEED19
:1000E000B1E001C01D92AA36B207E1F710E0CDE5FC
:1000F000D0E004C02197FE010E942811CC35D10721
:10010000C9F70E94FF0B0C945E110C94000090E064
:10011000FC01EC55FF4F249180579F4FFC018491C7
:10012000882399F090E0880F991FFC01EA57FF4F50
:10013000A591B491FC01E458FF4F859194918FB73C
:10014000F894EC91E22BEC938FBF0895CF93DF935B
:10015000DC0116962C9141EE52E0EEEDF2E0CCED92
:10016000D2E0211106C040EE52E0EAEDF2E0C8ED27
:10017000D2E0DC0115961C921E92149728813981D9
:10018000232B59F49183808399838883FA0180819A
:100190008F5F8083DF91CF910895C081D1819D834E
:1001A0008C8391838083F2CFAF92BF92CF92DF9204
:1001B000EF92FF920F931F93CF93DF936C017B011C
:1001C0008B01040F151FEB015E01AE18BF08C017AD
:1001D000D10759F06991D601ED91FC910190F08120
:1001E000E02DC6010995892B79F7C501DF91CF91E3
:1001F0001F910F91FF90EF90DF90CF90BF90AF9045
:100200000895FC01538D448D252F30E0842F90E01C
:10021000821B930B541710F0CF9608950197089501
:10022000FC01918D828D981761F0A28DAE0FBF2FCA
:10023000B11D5D968C91928D9F5F9F73928F90E020
:1002400008958FEF9FEF0895FC01918D828D98178F
:1002500031F0828DE80FF11D858D90E008958FEFCC
:100260009FEF0895FC01918D228D892F90E0805C95
:100270009F4F821B91098F73992708958AE292E01C
:100280000E94320121E0892B09F420E0822F089599
:1002900080E090E0892B29F00E943E0181110C94AE
:1002A00000000895FC01A48DA80FB92FB11DA35A19
:1002B000BF4F2C91848D90E001968F739927848F86
:1002C000A689B7892C93A089B1898C9183708064A9
:1002D0008C93938D848D981306C00288F389E02D4A
:1002E00080818F7D80830895EF92FF920F931F93FB
:1002F000CF93DF93EC0181E0888F9B8D8C8D9813D9
:100300001AC0E889F989808185FF15C09FB7F894E4
:10031000EE89FF896083E889F98980818370806430
:1003200080839FBF81E090E0DF91CF911F910F917B
:10033000FF90EF900895F62E0B8D10E00F5F1F4F8A
:100340000F731127E02E8C8D8E110CC00FB607FC99
:10035000FACFE889F989808185FFF5CFCE010E9427
:100360005201F1CFEB8DEC0FFD2FF11DE35AFF4F42
:10037000F0829FB7F8940B8FEA89FB8980818062B5
:10038000CFCFCF93DF93EC01888D8823B9F0AA8972
:10039000BB89E889F9898C9185FD03C0808186FD40
:1003A0000DC00FB607FCF7CF8C9185FFF2CF80818F
:1003B00085FFEDCFCE010E945201E9CFDF91CF91B1
:1003C000089590E0FC01E859FF4F2491FC01EC55A1
:1003D000FF4F3491FC01E057FF4FE491EE23C9F049
:1003E000222339F0233001F1A8F4213019F1223011
:1003F00029F1F0E0EE0FFF1FE458FF4FA591B491F3
:100400008FB7F894EC91611126C030953E233C9350
:100410008FBF08952730A9F02830C9F0243049F75C
:10042000809180008F7D03C0809180008F778093C2
:100430008000DFCF84B58F7784BDDBCF84B58F7D1F
:10044000FBCF8091B0008F778093B000D2CF8091A6
:10045000B0008F7DF9CF3E2BDACF4F925F926F9233
:100460007F92AF92BF92CF92DF92EF92FF920F9363
:100470001F93CF93DF93EC015A018B01488C598C69
:100480006A8C7B8C73016201F7FAF094F7F8F094B0
:100490009A01AB01C701B6010E943C10181664F026
:1004A0009501A801C301B2010E94DD0E7301620132
:1004B00087FD02C06501780120E030E0A901C70195
:1004C000B6010E94DD0E811117C01CA21DA21EA242
:1004D0001FA2CC8ADD8AEE8AFF8ADF91CF911F911D
:1004E0000F91FF90EF90DF90CF90BF90AF907F90F3
:1004F0006F905F904F900895A701960160E074E2BD
:1005000084E799E40E94E20E9F770E945B0F6CA340
:100510007DA38EA39FA311E020E030E0A901C701D5
:10052000B6010E943C1018160CF010E01A83D1CFCF
:10053000CF93DF93FC012381222329F1EC018481F5
:100540000E9487008D810E9487008B81843011F08A
:10055000883099F48E810E9487008F810E948700E5
:100560008FA58F3F81F00E9487006EA581E06827EC
:100570008FA5DF91CF910C94E101833011F086308B
:1005800079F78E81EBCFDF91CF910895CF93DF93F1
:10059000FC0123812223A1F0EC010190F081E02DE8
:1005A0000480F581E02D60E009958FA58F3F41F033
:1005B0000E9487006EA58FA5DF91CF910C94E10179
:1005C000DF91CF910895DC01ED91FC91248135817B
:1005D00047705527662777274150510961097109EE
:1005E000473051056105710560F4FA01E650FD4F91
:1005F0000C9428110403060308030A030C030E03DA
:10060000100361E0F901099465E0FCCF64E0FACFE2
:1006100066E0F8CF62E0F6CF6AE0F4CF68E0F2CFB0
:1006200069E0F0CFCF93DF93EC01CB01BA0126E074
:1006300030E040E050E00E94091162307105810510
:10064000910589F16CF46115710581059105D1F071
:100650006130710581059105F9F0DF91CF91089521
:10066000643071058105910561F124F165307105F2
:100670008105910591F7E881F9810480F581E02DEC
:1006800066E006C0E881F9810480F581E02D64E030
:10069000CE01DF91CF910994E881F9810480F58141
:1006A000E02D65E0F5CFE881F9810480F581E02D4A
:1006B00061E0EECFE881F9810480F581E02D63E00F
:1006C000E7CFE881F9810480F581E02D62E0E0CF99
:1006D000DC01ED91FC910480F581E02D43705527FC
:1006E00066277727423051056105710571F0433067
:1006F00051056105710559F04130510561057105DC
:1007000011F065E0099466E0FDCF6AE0FBCF69E097
:10071000F9CFCF93DF93EC01CB01BA0123E030E0B6
:1007200040E050E00E94091161307105810591059A
:1007300099F06230710581059105A9F0672B682B4E
:10074000692BC1F4E881F9810480F581E02D64E032
:10075000CE01DF91CF910994E881F9810480F58180
:10076000E02D61E0F5CFE881F9810480F581E02D8D
:1007700062E0EECFDF91CF910895DC01ED91FC9125
:100780000480F581E02D4370552766277727423096
:1007900051056105710571F0433051056105710521
:1007A00059F0413051056105710511F062E009947D
:1007B00063E0FDCF61E0FBCF60E0F9CFCF93DF9343
:1007C000EC01E881F9810480F581E02D8A8160E007
:1007D000811162E0CE010995E881F9810480F581FB
:1007E000E02D8A8161E0811163E0CE0109958CA53D
:1007F0009DA58230910538F0880F991F880F991FA9
:1008000005970197F1F7E881F9810480F581E02DE2
:100810008A8160E0811162E0CE01DF91CF9109947D
:10082000CF93DF93EC0120E030E0A9016C897D8952
:100830008E899F890E943C1018162CF4E8A9F9A90A
:10084000DF91CF910994EAA9FBA9FACFCF92DF9269
:10085000EF92FF920F931F93CF93DF93DC011396D8
:10086000CC91C43039F0C83059F1C33019F0C630DA
:1008700049F1C2E08C010C5F1F4FF12CE12CC62E18
:10088000D12CD1E0F8016481C6010E2C02C09595EF
:1008900087950A94E2F780FD6D270F5F1F4F8081D7
:1008A0000E94E101BFEFEB1AFB0AEC1658F3DF914F
:1008B000CF911F910F91FF90EF90DF90CF9008950F
:1008C000C4E0D8CFC3E0D6CFDC011396EC911397E8
:1008D000E93008F038C0F0E0E059FB4F0C942811E3
:1008E00079047F0485048B049104A3049704A30472
:1008F0009D04ED91FC910084F185E02D0994ED912A
:10090000FC910284F385E02DF9CFED91FC910484F4
:10091000F585E02DF3CFED91FC910684F785E02D70
:10092000EDCFED91FC910088F189E02DE7CFED91BD
:10093000FC910288F389E02DE1CFED91FC910488D0
:10094000F589E02DDBCF08954F925F926F927F92F1
:100950008F929F92AF92BF92CF92DF92EF92FF92CF
:100960000F931F93CF93DF93EC01C888D988EA884F
:10097000FB888C859D85AE85BF85C81AD90AEA0A91
:10098000FB0A6C897D898E899F899B01AC010E943D
:1009900041104B015C016C8D7D8D8E8D9F8D9B0177
:1009A000AC010E94710E9B01AC01C501B4010E9413
:1009B000E20E0E94540FC114D104E104F10409F0C5
:1009C000B1C062307105810591050CF0CBC01CA24D
:1009D0001DA21EA21FA21C8A1D8A1E8A1F8A1CAA73
:1009E0001DAA1EAA1FAADF91CF911F910F91FF9000
:1009F000EF90DF90CF90BF90AF909F908F907F90BF
:100A00006F905F904F90089510161106120613060E
:100A1000B4F46C157D058E059F051CF42A81211107
:100A2000A1C09B01AC0188279927DC01821B930B95
:100A3000A40BB50B8CAB9DABAEABBFAB93C001159C
:100A400011052105310509F48DC06C157D058E0554
:100A50009F050CF087C08A81882309F483C03095F4
:100A60002095109501951F4F2F4F3F4F0CAB1DAB9D
:100A70002EAB3FAB77C0011511052105310509F4F7
:100A800071C08824992454018C189D08AE08BF08B1
:100A9000681579058A059B050CF064C08A8181116F
:100AA00061C0DDCFCCACDDACEEACFFACA7019601F4
:100AB000C701B6010E94710E2B013C01C501B401B2
:100AC0000E948C0F20E030E040E850E40E9441108A
:100AD00020E030E040E85FE30E94710E9B01AC0132
:100AE000C301B2010E94E20E9B01AC01C701B60135
:100AF0000E94700E3B016C01FE01E05CFF4FE08044
:100B0000F180028113819701A8010E943C10181600
:100B100014F473018601C701D8018CAF9DAFAEAF4D
:100B2000BFAF3AC00CA91DA92EA93FA91C141D04D2
:100B30001E041F040CF468CF1016110612061306CB
:100B40000CF099CF0027112798010C191D092E09C7
:100B50003F0960177107820793070CF062CF2A8163
:100B600021115FCF8CA89DA8AEA8BFA881149104C5
:100B7000A104B10409F096CF88AD99ADAAADBBAD83
:100B80008CAF9DAFAEAFBFAF81E01C141D041E043F
:100B90001F040CF080E08A833FEF831A930AA30AB4
:100BA000B30A8CAA9DAAAEAABFAACCACDDACEEACAF
:100BB000FFACC701B6010E945B0F6CA37DA38EA39F
:100BC0009FA3A701960160E074E284E799E40E9484
:100BD000E20E6C8B7D8B8E8B9F8B2A81211103CF34
:100BE00090586C8B7D8B8E8B9F8BFDCE4F925F923E
:100BF0006F927F928F929F92AF92BF92CF92DF922D
:100C0000EF92FF92CF93DF9300D000D000D0CDB70A
:100C1000DEB79E838D83DC0154968D909D90AD90C0
:100C2000BC90579720E030E0A901C501B4010E94B3
:100C3000DD0E882309F46DC0A5019401C501B4013E
:100C40000E9441106B017C01ED81FE81648D758DE8
:100C5000868D978D9B01AC010E94710E9B01AC01AA
:100C6000C701B6010E94E20E0E94540F6B017C0185
:100C7000AD81BE811C964D905D906D907C901F97CC
:100C800050968D919D910D90BC91A02D89839A8352
:100C9000AB83BC8320E030E0A901C501B4010E9410
:100CA0003C1018168CF5BFEFCB1ADB0AEB0AFB0AD7
:100CB0004C0C5D1C6E1C7F1C89819A81AB81BC81B0
:100CC00084159505A605B70521F1AD81BE81509625
:100CD0004D925D926D927C925397CD0126960FB600
:100CE000F894DEBF0FBECDBFDF91CF91FF90EF90A4
:100CF000DF90CF90BF90AF909F908F907F906F903C
:100D00005F904F900C94A404C094D094E094F0941D
:100D1000CFCF26960FB6F894DEBF0FBECDBFDF91C2
:100D2000CF91FF90EF90DF90CF90BF90AF909F90CA
:100D30008F907F906F905F904F900895CF92DF9249
:100D4000EF92FF920F931F93CF93DF93EC016A0111
:100D50007B0120E030E0A901CB01B6010E94DD0E4D
:100D600087FF04C0F7FAF094F7F8F094A701960112
:100D7000688D798D8A8D9B8D0E94DD0E882309F404
:100D800046C0C88ED98EEA8EFB8E8E01005C1F4F46
:100D9000A701960160E074E284E799E40E94E20E04
:100DA000F80160837183828393838CA99DA9AEA986
:100DB000BFA9181619061A061B064CF56C897D8901
:100DC0008E899F899B01AC010E9441106B017C01BF
:100DD0006C8D7D8D8E8D9F8D9B01AC010E94710E5F
:100DE0009B01AC01C701B6010E94E20E0E94540FA4
:100DF0006CAB7DAB8EAB9FABCE01DF91CF911F91E2
:100E00000F91FF90EF90DF90CF900C94A404DF91AE
:100E1000CF911F910F91FF90EF90DF90CF900895A9
:100E2000CF92DF92EF92FF92CF93DF93EC018CA1F0
:100E30009DA1AEA1BFA1892B8A2B8B2B41F480E011
:100E4000DF91CF91FF90EF90DF90CF9008953FB763
:100E5000F8948091DE019091DF01A091E001B091C2
:100E6000E10126B5A89B05C02F3F19F00196A11DF1
:100E7000B11D3FBFBA2FA92F982F88276C017D0184
:100E8000C20ED11CE11CF11C42E0CC0CDD1CEE1C9E
:100E9000FF1C4A95D1F788A599A5AAA5BBA5B701BE
:100EA000A601481B590B6A0B7B0B8CA19DA1AEA11F
:100EB000BFA1481759076A077B0708F4C0CF8C8584
:100EC0009D85AE85BF852A812223A1F00196A11DB3
:100ED000B11D8C879D87AE87BF874C855D856E85EC
:100EE0007F85CE010E946404C8A6D9A6EAA6FBA607
:100EF00081E0A6CF0197A109B109EBCF0F931F9312
:100F0000CF93DF93EC010E941007882319F0CE01E4
:100F10000E94A40420E030E0A9016C897D898E89BB
:100F20009F890E94DD0E811114C081E00889198912
:100F30002A893B894C855D856E857F850417150759
:100F40002607370709F480E0DF91CF911F910F91B9
:100F5000089581E0F9CFFB0101900020E9F7319776
:100F6000AF01461B570BDC01ED91FC910280F38130
:100F7000E02D09940F931F93CF93DF938C01D0E062
:100F8000C0E06115710519F00E94AB07EC016EE23B
:100F900071E0C8010E94AB078C0F9D1FDF91CF91BC
:100FA0001F910F910895CF93DF93EC0110920101EF
:100FB00086E293E00E94F60582EE92E00E94F6053A
:100FC00086E293E00E94C60261E371E08881998124
:100FD000DF91CF910C94BA076115710511F00C9453
:100FE000AB0790E080E008950F931F93CF93DF93BA
:100FF000EC018B016DE371E0888199810E94EC071F
:10100000B801888199810E94EC0764E571E08881CC
:101010009981DF91CF911F910F910C94BA07AC0188
:10102000425F5F4FFC016085718590E080E00C9429
:101030002C0ECF92DF92EF92FF920F931F93CF93DC
:10104000DF93EC010E940F088C0181E08093010185
:101050001092000186E293E00E94980240E050E482
:101060006CE176E486E293E00E949E06C8010E944D
:10107000050E0E948C0F6B017C0120913A03309188
:101080003B0340913C0350913D030E94DD0E8823B9
:1010900031F0B701A60186E293E00E942D0266E5D9
:1010A00071E0888199810E94EC07B801888199815B
:1010B000DF91CF911F910F91FF90EF90DF90CF9034
:1010C0000C94BA078F929F92AF92BF92EF92FF92C9
:1010D0000F931F93CF93DF93EC010E940F087C01C5
:1010E000CE010E940F088C0181E080930101809362
:1010F000000186E293E00E949802C8010E94E70D79
:10110000BC01990F880B990B0E948C0FAB01BC019D
:1011100086E293E00E949E06C7010E94050E809021
:10112000360390903703A0903803B09039036815C8
:1011300079058A059B0561F0609336037093370348
:10114000809338039093390386E293E00E94A404CD
:101150006FE671E0888199810E94EC07B701888170
:1011600099810E94BA0766E571E0888199810E94A1
:10117000EC07B80188819981DF91CF911F910F9180
:10118000FF90EF90BF90AF909F908F900C94BA0714
:10119000CF92DF92EF92FF920F931F93CF93DF9343
:1011A000EC010E940F088C01CE010E940F0881E023
:1011B000809301011092000182EE92E00E94980259
:1011C000C8010E94E70DBC01990F880B990B0E9482
:1011D0008C0F6B017C012091F6023091F702409157
:1011E000F8025091F9020E94DD0E882331F0B70118
:1011F000A60182EE92E00E942D026FE871E08881E4
:1012000099810E94EC07B80188819981DF91CF9183
:101210001F910F91FF90EF90DF90CF900C94BA0741
:101220008F929F92AF92BF92EF92FF920F931F9374
:10123000CF93DF93EC010E940F087C01CE010E9446
:101240000F088C0181E0809301018093000182EE00
:1012500092E00E949802C8010E94E70DBC01990F1C
:10126000880B990B0E948C0FAB01BC0182EE92E0BF
:101270000E949E06C7010E94050E8090F202909087
:10128000F302A090F402B090F502681579058A0582
:101290009B0561F06093F2027093F3028093F40275
:1012A0009093F50282EE92E00E94A4046FE971E04F
:1012B000888199810E94EC07B701888199810E94F9
:1012C000EC0768E971E0888199810E94EC07B80118
:1012D00088819981DF91CF911F910F91FF90EF90BD
:1012E000BF90AF909F908F900C94BA074F925F92EF
:1012F0006F927F928F929F92AF92BF92CF92DF9226
:10130000EF92FF92CF93DF93EC016A017B0120E023
:1013100030E0A901CB01B6010E94DD0E87FF04C0B9
:10132000F7FAF094F7F8F0948C8C9D8CAE8CBF8C0F
:10133000A7019601C501B4010E94DD0E882309F4BE
:1013400049C06CA97DA98EA99FA90E948C0F2B0171
:101350003C01A7019601C501B4010E94E20E9B0168
:10136000AC01C301B2010E9441100E94540F6CAB4A
:101370007DAB8EAB9FABA701960160E070E080E093
:1013800090E40E94E20E0E94B41026E53EE04DE299
:101390005FE30E94411020E034E244E759E40E94F8
:1013A000411068AF79AF8AAF9BAFCC8EDD8EEE8EE9
:1013B000FF8ECE01DF91CF91FF90EF90DF90CF9025
:1013C000BF90AF909F908F907F906F905F904F9065
:1013D0000C94A404DF91CF91FF90EF90DF90CF9019
:1013E000BF90AF909F908F907F906F905F904F9045
:1013F00008951F920F920FB60F9211242F933F93CF
:101400004F935F936F937F938F939F93AF93BF930C
:10141000EF93FF938AE292E00E945201FF91EF91D5
:10142000BF91AF919F918F917F916F915F914F91FC
:101430003F912F910F900FBE0F901F9018951F9204
:101440000F920FB60F9211242F938F939F93EF93C8
:10145000FF93E0913A02F0913B028081E0914002DB
:10146000F091410282FD1BC09081809143028F5F09
:101470008F7320914402821741F0E0914302F0E023
:10148000E65DFD4F958F80934302FF91EF919F9111
:101490008F912F910F900FBE0F901F901895808104
:1014A000F4CF1F920F920FB60F9211242F933F93F8
:1014B0008F939F93AF93BF938091E3019091E40149
:1014C000A091E501B091E6013091E20123E0230F04
:1014D0002D3758F50196A11DB11D2093E20180938F
:1014E000E3019093E401A093E501B093E6018091BC
:1014F000DE019091DF01A091E001B091E101019640
:10150000A11DB11D8093DE019093DF01A093E00146
:10151000B093E101BF91AF919F918F913F912F9136
:101520000F900FBE0F901F90189526E8230F02967C
:10153000A11DB11DD2CF6F927F928F929F92AF92D9
:10154000BF92CF92DF92EF92FF920F931F93CF93B0
:10155000DF93CAE2D2E01B821A8288EE93E0A0E019
:10156000B0E08C839D83AE83BF8386E091E0998356
:10157000888385EC90E09D878C8784EC90E09F8742
:101580008E8780EC90E0998B888B81EC90E09B8B30
:101590008A8B82EC90E09D8B8C8B86EC90E09F8B0D
:1015A0008E8B198E1A8E1B8E1C8EE6E2F3E088E17C
:1015B000E82E81E0F82EF182E08266246394638253
:1015C0001486158616861786108A118A128A138A3F
:1015D000148A158A168A178A812C912C90E8A92ED4
:1015E0009FE3B92E808E918EA28EB38E148E158EAF
:1015F000168E178E80A291A2A2A2B3A214A215A247
:1016000016A217A201E010E015A704A777247A9488
:1016100077A610A611A612A613A682E0848325E061
:10162000D22ED58234E0C32EC682D78216A614AA43
:1016300015AA16AA17AA10AE11AE12AE13AE14AEAA
:1016400015AE16AE17AE8092660390926703A09215
:101650006803B0926903128210861186128613867F
:10166000CF010E949802B501A40186E293E00E9496
:101670007609E2EEF2E0F182E0826382148615865A
:1016800016861786108A118A128A138A148A158A76
:10169000168A178A808E918EA28EB38E148E158E26
:1016A000168E178E80A291A2A2A2B3A214A215A296
:1016B00016A217A215A704A777A610A611A612A610
:1016C00013A683E0848386E08583C682D78216A62C
:1016D00014AA15AA16AA17AA10AE11AE12AE13AE0E
:1016E00014AE15AE16AE17AE80922203909223036D
:1016F000A0922403B09225031282108611861286CE
:101700001386CF010E949802B501A40182EE92E0F7
:101710000E947609E7ECF2E0D183C0838AE092E090
:10172000938382838FE190E0958384838EE291E0BE
:10173000978386838DE691E0918780871386128652
:101740001586148617861686108A128A118A148ABC
:10175000138A168A158A108E178A118E128EE3E06C
:10176000F2E08FEA91E09183808389E198E09383AE
:101770008283158214821682ECEFF1E082EB91E015
:101780009183808382E698E093838283158214821A
:101790001682E5EFF1E086EB91E09183808388EC9F
:1017A00098E093838283158214821682EEEEF1E034
:1017B00089EB91E09183808380E199E09383828338
:1017C000158214821682E7EEF1E089E391E09183BD
:1017D000808383ED97E0938382831582148216823F
:1017E000DF91CF911F910F91FF90EF90DF90CF90FD
:1017F000BF90AF909F908F907F906F900895789456
:1018000084B5826084BD84B5816084BD85B5826005
:1018100085BD85B5816085BD80916E0081608093B6
:101820006E0010928100809181008260809381001F
:10183000809181008160809381008091800081602F
:10184000809380008091B10084608093B10080918A
:10185000B00081608093B00080917A0084608093B2
:101860007A0080917A00826080937A0080917A0079
:10187000816080937A0080917A00806880937A00FA
:101880001092C100E0913A02F0913B0282E0808325
:10189000E0913602F09137021082E0913802F09127
:1018A000390280E1808310924202E0913E02F09181
:1018B0003F0286E08083E0913C02F0913D0280810E
:1018C00080618083E0913C02F0913D0280818860DC
:1018D0008083E0913C02F0913D02808180688083AA
:1018E000E0913C02F0913D0280818F7D808384EF06
:1018F00097E09093D2028093D10283E092E00E941D
:10190000A6008CEF91E00E94A60085EF91E00E9476
:10191000A6008EEE91E00E94A60087EE91E00E9464
:10192000A6006DEB71E08AE292E00E94BA07109285
:101930002E0310922F03C1E0C0935403D8E0D0933C
:10194000550388E00E948700609154036C278091C2
:1019500055030E94E10140E050E46CE176E486E248
:1019600093E00E949E0640E050E06AEF74E486E255
:1019700093E00E9476091092EA021092EB02C09363
:101980001003D093110388E00E9487006091100338
:101990006C27809111030E94E10140E050E46CE16A
:1019A00076E482EE92E00E949E0640E050E06AEF0C
:1019B00074E482EE92E00E94760986E293E00E944F
:1019C000C60200E010E08091C7029091C802892B06
:1019D00009F460C08091C7029091C802DC01ED91CA
:1019E000FC910084F185E02D0995181619060CF07C
:1019F00051C08091C7029091C802DC01ED91FC9129
:101A00000284F385E02D0995BC011816190614F718
:101A10008091D3029091D402E091C902F091CA0260
:101A20002091CB023091CC028217930764F59C0180
:101A30002F5F3F4F3093D4022093D302E80FF91F5A
:101A400060832091D3023091D4022130310509F016
:101A500042C0E091DC02F091DD02A091C902B09198
:101A6000CA023097C1F1C081D1819C9188819813BD
:101A70002EC00280F381E02D87EC92E00995E09181
:101A8000C902F091CA0210821092D4021092D302BD
:101A90001092D70280910101882369F080910001A2
:101AA000882309F48BC086E293E00E947E0782EED1
:101AB00092E00E947E070115110509F484CF0E946F
:101AC0003E01882309F47FCF0E9400007CCF048070
:101AD000F581E02DC6CFA091CD02B091CE029091BC
:101AE000D702FD01E90FF11D97FDFA954081042E03
:101AF000000C550B6417750719F01092D7026ACFC6
:101B000081E0890F8093D702FD01E80FF11D87FD69
:101B1000FA95808181115ECFFD0101900020E9F7E7
:101B20003197EA1BFB0B2E1B3F0B8091C902909152
:101B3000CA02280F391FF90110826091CF027091FB
:101B4000D00245ED52E08091C9029091CA020E94F4
:101B50002C0E7C01892BC9F0C091D802D091D902FA
:101B6000209709F168817981DB010D900020E9F768
:101B7000AD01461B570BC7010E945011892B79F408
:101B8000EA81FB8187EC92E00995E091C902F0912E
:101B9000CA0210821092D4021092D302AECF0C80EF
:101BA000DD81C02DDDCFE091D102F091D2023097DE
:101BB00061F3B70187EC92E00995E7CF86E293E005
:101BC0000E94100782EE92E00E94100774CFFC0181
:101BD00088279927E89421912032E9F3293010F0E1
:101BE0002E30C8F32B3241F02D3239F4689404C002
:101BF0000E94680E820F911D219120532A30C0F35C
:101C00001EF4909581959F4F08951F93FC0199278D
:101C10008827BC01E89411911032E9F3193010F0D3
:101C20001E30C8F31B3251F01D3249F4689406C0CF
:101C30000E94530E610F711D811D911D1191105352
:101C40001A30B0F33EF490958095709561957F4F72
:101C50008F4F9F4F1F910895FA01A191B081009776
:101C600019F41097E1F0CD01DC01CD010D900020B9
:101C700011F4C00113C0FB012191222319F020159A
:101C8000D9F7F3CFFB012191201519F41E9211967B
:101C900006C02223C1F70D900020A1F7D001FA0160
:101CA000A193B0830895592F482F372F262F660F01
:101CB000771F881F991F660F771F881F991F620F54
:101CC000731F841F951F660F771F881F991F089524
:101CD0007AE0979F902D879F802D910D1124089574
:101CE0005058BB27AA270E94880E0C9402100E940D
:101CF000F40F38F00E94FB0F20F039F49F3F19F4E5
:101D000026F40C94F10F0EF4E095E7FB0C94EB0F26
:101D1000E92F0E94131058F3BA176207730784075C
:101D2000950720F079F4A6F50C9435100EF4E095A3
:101D30000B2EBA2FA02D0B01B90190010C01CA0185
:101D4000A0011124FF27591B99F0593F50F4503E30
:101D500068F11A16F040A22F232F342F4427585F22
:101D6000F3CF469537952795A795F0405395C9F73A
:101D70007EF41F16BA0B620B730B840BBAF09150F2
:101D8000A1F0FF0FBB1F661F771F881FC2F70EC091
:101D9000BA0F621F731F841F48F487957795679564
:101DA000B795F7959E3F08F0B0CF9395880F08F050
:101DB0009927EE0F9795879508950E94C70F08F40D
:101DC00081E008950E94F60E0C9402100E94FB0F11
:101DD00058F00E94F40F40F029F45F3F29F00C9472
:101DE000EB0F51110C9436100C94F10F0E9413104C
:101DF00068F39923B1F3552391F3951B550BBB273A
:101E0000AA2762177307840738F09F5F5F4F220F7E
:101E1000331F441FAA1FA9F335D00E2E3AF0E0E875
:101E200032D091505040E695001CCAF72BD0FE2FBF
:101E300029D0660F771F881FBB1F26173707480753
:101E4000AB07B0E809F0BB0B802DBF01FF2793580B
:101E50005F4F3AF09E3F510578F00C94EB0F0C94D5
:101E600036105F3FE4F3983ED4F3869577956795F7
:101E7000B795F7959F5FC9F7880F911D9695879540
:101E800097F90895E1E0660F771F881FBB1F62175F
:101E900073078407BA0720F0621B730B840BBA0B1D
:101EA000EE1F88F7E09508950E945B0F6894B111CA
:101EB0000C94361008950E941B1088F09F5798F0DC
:101EC000B92F9927B751B0F0E1F0660F771F881F3F
:101ED000991F1AF0BA95C9F714C0B13091F00E9459
:101EE0003510B1E008950C943510672F782F8827AE
:101EF000B85F39F0B93FCCF3869577956795B39580
:101F0000D9F73EF490958095709561957F4F8F4FEE
:101F10009F4F0895E89409C097FB3EF490958095F3
:101F2000709561957F4F8F4F9F4F9923A9F0F92F9F
:101F300096E9BB279395F695879577956795B7951D
:101F4000F111F8CFFAF4BB0F11F460FF1BC06F5F03
:101F50007F4F8F4F9F4F16C0882311F096E911C015
:101F6000772321F09EE8872F762F05C0662371F036
:101F700096E8862F70E060E02AF09A95660F771F4A
:101F8000881FDAF7880F9695879597F90895990F26
:101F90000008550FAA0BE0E8FEEF16161706E80733
:101FA000F907C0F012161306E407F50798F0621B54
:101FB000730B840B950B39F40A2661F0232B242B29
:101FC000252B21F408950A2609F4A140A6958FEF48
:101FD000811D811D089597F99F6780E870E060E09A
:101FE00008959FEF80EC089500240A9416161706B2
:101FF00018060906089500240A94121613061406FA
:1020000005060895092E0394000C11F4882352F05C
:10201000BB0F40F4BF2B11F460FF04C06F5F7F4F14
:102020008F4F9F4F089557FD9058440F551F59F0FB
:102030005F3F71F04795880F97FB991F61F09F3FB5
:1020400079F087950895121613061406551FF2CFDE
:102050004695F1DF08C0161617061806991FF1CF2E
:1020600086957105610508940895E894BB27662755
:102070007727CB0197F908950E94C70F08F48FEFD7
:1020800008950E9454100C9402100E94F40F38F02E
:102090000E94FB0F20F0952311F00C94EB0F0C9491
:1020A000F10F11240C9436100E94131070F3959FB9
:1020B000C1F3950F50E0551F629FF001729FBB273F
:1020C000F00DB11D639FAA27F00DB11DAA1F649FDB
:1020D0006627B00DA11D661F829F2227B00DA11D8E
:1020E000621F739FB00DA11D621F839FA00D611D14
:1020F000221F749F3327A00D611D231F849F600D35
:10210000211D822F762F6A2F11249F5750409AF05D
:10211000F1F088234AF0EE0FFF1FBB1F661F771FE9
:10212000881F91505040A9F79E3F510580F00C94B4
:10213000EB0F0C9436105F3FE4F3983ED4F3869592
:1021400077956795B795F795E7959F5FC1F7FE2B54
:10215000880F911D9695879597F9089519F416F4AF
:102160000C94F10F0C94F4100E941B10B8F39923F7
:10217000C9F3B6F39F57550B87FF0E940211002445
:10218000A0E640EA900180585695979528F4805C27
:10219000660F771F881F20F026173707480730F48F
:1021A000621B730B840B202931294A2BA6951794A7
:1021B0000794202531254A2758F7660F771F881F77
:1021C00020F026173707480730F4620B730B840B97
:1021D000200D311D411DA09581F7B901842F915823
:1021E000880F9695879508959F3F31F0915020F480
:1021F000879577956795B795880F911D96958795E3
:1022000097F9089591505040660F771F881FD2F7B5
:102210000895052E97FB1EF400940E94201157FD8F
:1022200007D00E942E1107FC03D04EF40C9420110D
:1022300050954095309521953F4F4F4F5F4F0895F2
:1022400090958095709561957F4F8F4F9F4F089522
:10225000EE0FFF1F0590F491E02D0994A1E21A2ED4
:10226000AA1BBB1BFD010DC0AA1FBB1FEE1FFF1F3A
:10227000A217B307E407F50720F0A21BB30BE40B8A
:10228000F50B661F771F881F991F1A9469F76095D1
:102290007095809590959B01AC01BD01CF0108958B
:1022A000FB01DC014150504030F08D9101908019CC
:1022B00019F40020B9F7881B990B0895F894FFCF03
:1022C0000101000000007401D4000101C1013201CC
:1022D0001001240100000000C602980226046404D4
:1022E0001004DE03BD03890368031203E3020D0A31
:1022F000004D4F544F524553204F464600556E7285
:1023000065636F676E697A656420636F6D6D616E7A
:1023100064205B005D0056656C6F636964616420D6
:102320006D6F746F7220415A494D55543A200050D8
:102330006F736963696F6E2064657374696E6F2073
:102340006D6F746F7220415A494D55543A200045C3
:102350004C45564143494F4E2056656C3A20004546
:102360004C45564143494F4E20506F733A2000412F
:102370005A00415A7000454C00454C70004D6F7436
:102380006F7265732054656C6573636F70696F203D
:0E239000302E31202D3E205265616479000010
:00000001FF
