:020000040000FA
:100000000C945D000C9485000C9485000C94850084
:100010000C9485000C9485000C9485000C9485004C
:100020000C9485000C9485000C9485000C9485003C
:100030000C9485000C9485000C9485000C9485002C
:100040000C94F1070C9485000C94BF070C9499074D
:100050000C9485000C9485000C9485000C9485000C
:100060000C9485000C94850000000008000201003B
:100070000003040700000000000000000000000072
:10008000250028002B0000000000240027002A0083
:10009000040404040404040402020202020203032E
:1000A0000303030301020408102040800102040836
:1000B00010200102040810203B0811241FBECFEFBE
:1000C000D8E0DEBFCDBF11E0A0E0B1E0E0EAFCE1A6
:1000D00002C005900D92A037B107D9F722E0A0E742
:1000E000B1E001C01D92A73EB207E1F710E0CDE5F7
:1000F000D0E004C02197FE010E94180ECC35D10734
:10010000C9F70E94B7080C944E0E0C94000090E0C2
:10011000FC01EC55FF4F249180579F4FFC018491C7
:10012000882399F090E0880F991FFC01EA57FF4F50
:10013000A591B491FC01E458FF4F859194918FB73C
:10014000F894EC91E22BEC938FBF0895CF93DF935B
:10015000DC0116962C914EE552E0EBE5F2E0C9E5A4
:10016000D2E0211106C04DE552E0E7E5F2E0C5E539
:10017000D2E0DC0115961C921E92149728813981D9
:10018000232B59F49183808399838883FA0180819A
:100190008F5F8083DF91CF910895C081D1819D834E
:1001A0008C8391838083F2CFAF92BF92CF92DF9204
:1001B000EF92FF920F931F93CF93DF936C017B011C
:1001C0008B01040F151FEB015E01AE18BF08C017AD
:1001D000D10759F06991D601ED91FC910190F08120
:1001E000E02DC6010995892B79F7C501DF91CF91E3
:1001F0001F910F91FF90EF90DF90CF90BF90AF9045
:100200000895FC01538D448D252F30E0842F90E01C
:10021000821B930B541710F0CF9608950197089501
:10022000FC01918D828D981761F0A28DAE0FBF2FCA
:10023000B11D5D968C91928D9F5F9F73928F90E020
:1002400008958FEF9FEF0895FC01918D828D98178F
:1002500031F0828DE80FF11D858D90E008958FEFCC
:100260009FEF0895FC01918D228D892F90E0805C95
:100270009F4F821B91098F739927089587EA91E018
:100280000E94320121E0892B09F420E0822F089599
:1002900080E090E0892B29F00E943E0181110C94AE
:1002A00000000895FC01A48DA80FB92FB11DA35A19
:1002B000BF4F2C91848D90E001968F739927848F86
:1002C000A689B7892C93A089B1898C9183708064A9
:1002D0008C93938D848D981306C00288F389E02D4A
:1002E00080818F7D80830895EF92FF920F931F93FB
:1002F000CF93DF93EC0181E0888F9B8D8C8D9813D9
:100300001AC0E889F989808185FF15C09FB7F894E4
:10031000EE89FF896083E889F98980818370806430
:1003200080839FBF81E090E0DF91CF911F910F917B
:10033000FF90EF900895F62E0B8D10E00F5F1F4F8A
:100340000F731127E02E8C8D8E110CC00FB607FC99
:10035000FACFE889F989808185FFF5CFCE010E9427
:100360005201F1CFEB8DEC0FFD2FF11DE35AFF4F42
:10037000F0829FB7F8940B8FEA89FB8980818062B5
:10038000CFCFCF93DF93EC01888D8823B9F0AA8972
:10039000BB89E889F9898C9185FD03C0808186FD40
:1003A0000DC00FB607FCF7CF8C9185FFF2CF80818F
:1003B00085FFEDCFCE010E945201E9CFDF91CF91B1
:1003C000089590E0FC01E859FF4F2491FC01EC55A1
:1003D000FF4F3491FC01E057FF4FE491EE23C9F049
:1003E000222339F0233001F1A8F4213019F1223011
:1003F00029F1F0E0EE0FFF1FE458FF4FA591B491F3
:100400008FB7F894EC91611126C030953E233C9350
:100410008FBF08952730A9F02830C9F0243049F75C
:10042000809180008F7D03C0809180008F778093C2
:100430008000DFCF84B58F7784BDDBCF84B58F7D1F
:10044000FBCF8091B0008F778093B000D2CF8091A6
:10045000B0008F7DF9CF3E2BDACF4F925F926F9233
:100460007F92AF92BF92CF92DF92EF92FF920F9363
:100470001F93CF93DF93EC015A018B01488C598C69
:100480006A8C7B8C73016201F7FAF094F7F8F094B0
:100490009A01AB01C701B6010E94870D181664F0DE
:1004A0009501A801C301B2010E94280C73016201E9
:1004B00087FD02C06501780120E030E0A901C70195
:1004C000B6010E94280C811117C01CA21DA21EA2F9
:1004D0001FA2CC8ADD8AEE8AFF8ADF91CF911F911D
:1004E0000F91FF90EF90DF90CF90BF90AF907F90F3
:1004F0006F905F904F900895A701960160E074E2BD
:1005000084E799E40E942D0C9F770E94A60C6CA3AF
:100510007DA38EA39FA311E020E030E0A901C701D5
:10052000B6010E94870D18160CF010E01A83D1CF87
:10053000CF93DF93FC012381222329F1EC018481F5
:100540000E9487008D810E9487008B81843011F08A
:10055000883099F48E810E9487008F810E948700E5
:100560008FA58F3F81F00E9487006EA581E06827EC
:100570008FA5DF91CF910C94E101833011F086308B
:1005800079F78E81EBCFDF91CF910895CF93DF93F1
:10059000FC0123812223A1F0EC010190F081E02DE8
:1005A0000480F581E02D60E009958FA58F3F41F033
:1005B0000E9487006EA58FA5DF91CF910C94E10179
:1005C000DF91CF910895DC01ED91FC91248135817B
:1005D00047705527662777274150510961097109EE
:1005E000473051056105710560F4FA01E650FD4F91
:1005F0000C94180E0403060308030A030C030E03ED
:10060000100361E0F901099465E0FCCF64E0FACFE2
:1006100066E0F8CF62E0F6CF6AE0F4CF68E0F2CFB0
:1006200069E0F0CFCF93DF93EC01CB01BA0126E074
:1006300030E040E050E00E94F90D62307105810524
:10064000910589F16CF46115710581059105D1F071
:100650006130710581059105F9F0DF91CF91089521
:10066000643071058105910561F124F165307105F2
:100670008105910591F7E881F9810480F581E02DEC
:1006800066E006C0E881F9810480F581E02D64E030
:10069000CE01DF91CF910994E881F9810480F58141
:1006A000E02D65E0F5CFE881F9810480F581E02D4A
:1006B00061E0EECFE881F9810480F581E02D63E00F
:1006C000E7CFE881F9810480F581E02D62E0E0CF99
:1006D000DC01ED91FC910480F581E02D43705527FC
:1006E00066277727423051056105710571F0433067
:1006F00051056105710559F04130510561057105DC
:1007000011F065E0099466E0FDCF6AE0FBCF69E097
:10071000F9CFCF93DF93EC01CB01BA0123E030E0B6
:1007200040E050E00E94F90D6130710581059105AE
:1007300099F06230710581059105A9F0672B682B4E
:10074000692BC1F4E881F9810480F581E02D64E032
:10075000CE01DF91CF910994E881F9810480F58180
:10076000E02D61E0F5CFE881F9810480F581E02D8D
:1007700062E0EECFDF91CF910895DC01ED91FC9125
:100780000480F581E02D4370552766277727423096
:1007900051056105710571F0433051056105710521
:1007A00059F0413051056105710511F062E009947D
:1007B00063E0FDCF61E0FBCF60E0F9CFCF93DF9343
:1007C000EC01E881F9810480F581E02D8A8160E007
:1007D000811162E0CE010995E881F9810480F581FB
:1007E000E02D8A8161E0811163E0CE0109958CA53D
:1007F0009DA58230910538F0880F991F880F991FA9
:1008000005970197F1F7E881F9810480F581E02DE2
:100810008A8160E0811162E0CE01DF91CF9109947D
:10082000CF93DF93EC0120E030E0A9016C897D8952
:100830008E899F890E94870D18162CF4E8A9F9A9C2
:10084000DF91CF910994EAA9FBA9FACFCF92DF9269
:10085000EF92FF920F931F93CF93DF93DC011396D8
:10086000CC91C43039F0C83059F1C33019F0C630DA
:1008700049F1C2E08C010C5F1F4FF12CE12CC62E18
:10088000D12CD1E0F8016481C6010E2C02C09595EF
:1008900087950A94E2F780FD6D270F5F1F4F8081D7
:1008A0000E94E101BFEFEB1AFB0AEC1658F3DF914F
:1008B000CF911F910F91FF90EF90DF90CF9008950F
:1008C000C4E0D8CFC3E0D6CFDC011396EC911397E8
:1008D000E93008F038C0F0E0E059FB4F0C94180EF6
:1008E00079047F0485048B049104A3049704A30472
:1008F0009D04ED91FC910084F185E02D0994ED912A
:10090000FC910284F385E02DF9CFED91FC910484F4
:10091000F585E02DF3CFED91FC910684F785E02D70
:10092000EDCFED91FC910088F189E02DE7CFED91BD
:10093000FC910288F389E02DE1CFED91FC910488D0
:10094000F589E02DDBCF0895CF92DF92EF92FF92F1
:10095000CF93DF93EC013FB7F894809175019091AC
:100960007601A0917701B091780126B5A89B05C0CA
:100970002F3F19F00196A11DB11D3FBFBA2FA92F1E
:10098000982F88276C017D01C20ED11CE11CF11C3F
:1009900042E0CC0CDD1CEE1CFF1C4A95D1F788A56B
:1009A00099A5AAA5BBA5B701A601481B590B6A0BBF
:1009B0007B0B8CA19DA1AEA1BFA1481759076A0767
:1009C0007B0728F18C859D85AE85BF852A812223F2
:1009D000D1F00196A11DB11D8C879D87AE87BF8781
:1009E0004C855D856E857F85CE010E946404C8A616
:1009F000D9A6EAA6FBA681E0DF91CF91FF90EF9008
:100A0000DF90CF9008950197A109B109E5CF80E06B
:100A1000F3CF4F925F926F927F928F929F92AF929D
:100A2000BF92CF92DF92EF92FF920F931F93CF93DB
:100A3000DF93EC01C888D988EA88FB888C859D857E
:100A4000AE85BF85C81AD90AEA0AFB0A6C897D8976
:100A50008E899F899B01AC010E948C0D4B015C012A
:100A60006C8D7D8D8E8D9F8D9B01AC010E94BC0B8A
:100A70009B01AC01C501B4010E942D0C0E949F0C8A
:100A8000C114D104E104F10409F0B1C06230710570
:100A9000810591050CF0CBC01CA21DA21EA21FA2B5
:100AA0001C8A1D8A1E8A1F8A1CAA1DAA1EAA1FAA8A
:100AB000DF91CF911F910F91FF90EF90DF90CF903A
:100AC000BF90AF909F908F907F906F905F904F906E
:100AD00008951016110612061306B4F46C157D0560
:100AE0008E059F051CF42A812111A1C09B01AC0138
:100AF00088279927DC01821B930BA40BB50B8CABC9
:100B00009DABAEABBFAB93C00115110521053105FF
:100B100009F48DC06C157D058E059F050CF087C00E
:100B20008A81882309F483C030952095109501951A
:100B30001F4F2F4F3F4F0CAB1DAB2EAB3FAB77C0C2
:100B4000011511052105310509F471C08824992486
:100B500054018C189D08AE08BF08681579058A05F0
:100B60009B050CF064C08A81811161C0DDCFCCACE3
:100B7000DDACEEACFFACA7019601C701B6010E9447
:100B8000BC0B2B013C01C501B4010E94D70C20E035
:100B900030E040E850E40E948C0D20E030E040E876
:100BA0005FE30E94BC0B9B01AC01C301B2010E9438
:100BB0002D0C9B01AC01C701B6010E94BB0B3B0190
:100BC0006C01FE01E05CFF4FE080F1800281138147
:100BD0009701A8010E94870D181614F4730186016D
:100BE000C701D8018CAF9DAFAEAFBFAF3AC00CA963
:100BF0001DA92EA93FA91C141D041E041F040CF4DA
:100C000068CF10161106120613060CF099CF0027B4
:100C1000112798010C191D092E093F09601771074A
:100C2000820793070CF062CF2A8121115FCF8CA835
:100C30009DA8AEA8BFA881149104A104B10409F035
:100C400096CF88AD99ADAAADBBAD8CAF9DAFAEAF21
:100C5000BFAF81E01C141D041E041F040CF080E0D3
:100C60008A833FEF831A930AA30AB30A8CAA9DAA28
:100C7000AEAABFAACCACDDACEEACFFACC701B601EE
:100C80000E94A60C6CA37DA38EA39FA3A70196012F
:100C900060E074E284E799E40E942D0C6C8B7D8BFC
:100CA0008E8B9F8B2A81211103CF90586C8B7D8B6B
:100CB0008E8B9F8BFDCE8F929F92AF92BF92CF92E1
:100CC000DF92EF92FF92CF93DF93EC0184E091E00B
:100CD0009983888381E08B831C861D861E861F86F0
:100CE000188A198A1A8A1B8A1C8A1D8A1E8A1F8AD8
:100CF000C12CD12C80E8E82E8FE3F82EC88ED98E37
:100D0000EA8EFB8E1C8E1D8E1E8E1F8EC8A2D9A24F
:100D1000EAA2FBA21CA21DA21EA21FA281E090E0DB
:100D20009DA78CA78FEF8FA718A619A61AA61BA69A
:100D30006C834D8384E08E8385E08F831EA61CAA7E
:100D40001DAA1EAA1FAA18AE19AE1AAE1BAE1CAE63
:100D50001DAE1EAE1FAEFE01E05CFF4FC082D18211
:100D6000E282F3821A82188619861A861B86CE01C1
:100D70000E9498028C8C9D8CAE8CBF8CA701960132
:100D8000C501B4010E94280C882349F16CA97DA9F2
:100D90008EA99FA90E94D70CA50194010E948C0DD9
:100DA0000E949F0C6CAB7DAB8EAB9FAB86E896E64A
:100DB000A9E6B9E488AF99AFAAAFBBAFCC8EDD8E00
:100DC000EE8EFF8ECE01DF91CF91FF90EF90DF90FE
:100DD000CF90BF90AF909F908F900C940905DF91BA
:100DE000CF91FF90EF90DF90CF90BF90AF909F900A
:100DF0008F900895FB0101900020E9F73197AF0132
:100E0000461B570BDC01ED91FC910280F381E02D34
:100E100009940F931F93CF93DF938C01D0E0C0E030
:100E20006115710519F00E94FA06EC016CE271E09F
:100E3000C8010E94FA068C0F9D1FDF91CF911F9170
:100E40000F910895CF93DF93EC0183EA92E00E9423
:100E5000C6026FE271E088819981DF91CF910C9495
:100E600009070F931F93CF93DF93EC018B016BE383
:100E700071E0888199810E94FA060115110529F017
:100E8000B801888199810E94FA0662E571E0888143
:100E90009981DF91CF911F910F910C940907CF9207
:100EA000DF92EF92FF920F931F93CF93DF93EC01AA
:100EB0007C018EE0E80EF11C68857985A70190E041
:100EC00080E00E948C0B8C0168857985A70190E0F9
:100ED00080E00E948C0B83EA92E00E949802C80195
:100EE0000E946E0BBC01990F880B990B0E94D70CC6
:100EF0006B017C012091B7023091B8024091B90298
:100F00005091BA020E94280C882331F0B701A60143
:100F100083EA92E00E942D02B80188819981DF91D5
:100F2000CF911F910F91FF90EF90DF90CF900C9495
:100F300009071F920F920FB60F9211242F933F9320
:100F40004F935F936F937F938F939F93AF93BF93D1
:100F5000EF93FF9387EA91E00E945201FF91EF9196
:100F6000BF91AF919F918F917F916F915F914F91C1
:100F70003F912F910F900FBE0F901F9018951F92C9
:100F80000F920FB60F9211242F938F939F93EF938D
:100F9000FF93E091B701F091B8018081E091BD012C
:100FA000F091BE0182FD1BC090818091C0018F5FD6
:100FB0008F732091C101821741F0E091C001F0E0F0
:100FC000E955FE4F958F8093C001FF91EF919F915E
:100FD0008F912F910F900FBE0F901F9018958081C9
:100FE000F4CF1F920F920FB60F9211242F933F93BD
:100FF0008F939F93AF93BF938091710190917201F2
:10100000A0917301B09174013091700123E0230F1E
:101010002D3758F50196A11DB11D209370018093C5
:10102000710190937201A0937301B0937401809148
:10103000750190917601A0917701B09178010196A8
:10104000A11DB11D8093750190937601A093770146
:10105000B0937801BF91AF919F918F913F912F9164
:101060000F900FBE0F901F90189526E8230F029641
:10107000A11DB11DD2CFCF93DF93C7EAD1E01B8270
:101080001A8288EE93E0A0E0B0E08C839D83AE836B
:10109000BF838EE191E09983888385EC90E09D8702
:1010A0008C8784EC90E09F878E8780EC90E0998B12
:1010B000888B81EC90E09B8B8A8B82EC90E09D8BFF
:1010C0008C8B86EC90E09F8B8E8B198E1A8E1B8EEC
:1010D0001C8E45E062E083EA92E00E945B0646E0F7
:1010E00063E08FE592E00E945B06E4E4F2E0D183E6
:1010F000C08387E891E0938382838FE190E09583BA
:1011000084838CE291E09783868384E591E09187E4
:101110008087138612861586148617861686108A8F
:10112000128A118A148A138A168A158A108E178ACF
:10113000118E128EE0E8F1E086E591E091838083E4
:101140008FE497E093838283158214821682E9E705
:10115000F1E087E391E09183808382E297E09383DB
:101160008283158214821682DF91CF91089578943C
:1011700084B5826084BD84B5816084BD85B582609C
:1011800085BD85B5816085BD80916E00816080934D
:101190006E001092810080918100826080938100B6
:1011A00080918100816080938100809180008160C6
:1011B000809380008091B10084608093B100809121
:1011C000B00081608093B00080917A008460809349
:1011D0007A0080917A00826080937A0080917A0010
:1011E000816080937A0080917A00806880937A0091
:1011F0001092C100E091B701F091B80182E08083C4
:10120000E091B301F091B4011082E091B501F09149
:10121000B60180E180831092BF01E091BB01F091A3
:10122000BC0186E08083E091B901F091BA01808130
:1012300080618083E091B901F091BA01808188607A
:101240008083E091B901F091BA0180818068808348
:10125000E091B901F091BA0180818F7D808381E3B3
:1012600097E090934F0280934E0280E891E00E94B5
:10127000A60089E791E00E94A60069E571E087EA8F
:1012800091E00E9409071092AB021092AC02C1E0FB
:10129000C093D10288E08093D2020E9487006091BF
:1012A000D1026C278091D2020E94E10120E030E45B
:1012B0004CE955E46091BB027091BC028091BD0283
:1012C0009091BE020E94280C882309F453C080E04C
:1012D00090E4ACE9B5E48093BB029093BC02A09388
:1012E000BD02B093BE0280E090E0A8E4B3E4809336
:1012F000E3029093E402A093E502B093E6026091CA
:10130000B7027091B8028091B9029091BA0200912F
:10131000D7021091D8022091D9023091DA0210162A
:1013200011061206130634F59B01AC010E948C0DC8
:101330006B017C016091BF027091C0028091C1027B
:101340009091C2029B01AC010E94BC0B9B01AC01BD
:10135000C701B6010E942D0C0E949F0C6093D7021A
:101360007093D8028093D9029093DA0283EA92E0D4
:101370000E94090520E030E04AEF53E46091B70293
:101380007091B8028091B9029091BA020E94280C23
:10139000882341F040E050E06AEF73E483EA92E092
:1013A0000E942D021092670210926802C1E0C09361
:1013B0008D0288E080938E020E94870060918D02EA
:1013C0006C2780918E020E94E10120E030E44CE91C
:1013D00055E4609177027091780280917902909142
:1013E0007A020E94280C882309F453C080E090E41C
:1013F000ACE9B5E48093770290937802A0937902E8
:10140000B0937A0280E090E0A8E4B3E480939F0276
:101410009093A002A093A102B093A20260917302E4
:1014200070917402809175029091760200919302FE
:101430001091940220919502309196021016110697
:101440001206130634F59B01AC010E948C0D6B0152
:101450007C0160917B0270917C0280917D02909171
:101460007E029B01AC010E94BC0B9B01AC01C70139
:10147000B6010E942D0C0E949F0C60939302709302
:10148000940280939502909396028FE592E00E94D9
:10149000090520E030E04AEF53E460917302709157
:1014A000740280917502909176020E94280C882324
:1014B00041F040E050E06AEF73E48FE592E00E9473
:1014C0002D0200E010E08091440290914502892BAA
:1014D00009F461C08091440290914502DC01ED91D4
:1014E000FC910084F185E02D0995181619060CF081
:1014F00052C08091440290914502DC01ED91FC9133
:101500000284F385E02D0995BC011816190614F71D
:101510008091500290915102E0914602F091470271
:101520002091480230914902821793076CF59C0183
:101530002F5F3F4F3093510220935002E80FF91F65
:10154000608320915002309151022130310509F021
:1015500052C0E0915902F0915A02A0914602B09116
:101560004702309709F447C0C081D1819C9188819E
:1015700098133DC00280F381E02D84E492E0099548
:10158000E0914602F09147021082109251021092AF
:101590005002109254028091C7029091C802A0910B
:1015A000C902B091CA02892B8A2B8B2B21F083EAC6
:1015B00092E00E94A4048091830290918402A09101
:1015C0008502B0918602892B8A2B8B2B21F08FE527
:1015D00092E00E94A4040115110509F474CF0E9441
:1015E0003E01882309F46FCF0E9400006CCF048075
:1015F000F581E02DB6CFA0914A02B0914B029091B7
:101600005402FD01E90FF11D97FDFA954081042E6A
:10161000000C550B6417750719F0109254025ACF3D
:1016200081E0890F80935402FD01E80FF11D87FDD1
:10163000FA95808181114ECFFD0101900020E9F7DC
:101640003197EA1BFB0B2E1B3F0B809146029091BA
:101650004702280F391FF901108260914C027091E6
:101660004D0242E552E080914602909147020E946D
:101670008C0B7C01892BC9F0C0915502D091560288
:10168000209709F168817981DB010D900020E9F74D
:10169000AD01461B570BC7010E94400E892B79F400
:1016A000EA81FB8184E492E00995E0914602F091A1
:1016B000470210821092510210925002AECF0C805D
:1016C000DD81C02DDDCFE0914E02F0914F023097C9
:1016D00061F3B70184E492E00995E7CFFC01882724
:1016E0009927E89421912032E9F3293010F02E3027
:1016F000C8F32B3241F02D3239F4689404C00E94B3
:10170000B30B820F911D219120532A30C0F31EF498
:10171000909581959F4F0895FA01A191B08100970E
:1017200019F41097E1F0CD01DC01CD010D900020FE
:1017300011F4C00113C0FB012191222319F02015DF
:10174000D9F7F3CFFB012191201519F41E921196C0
:1017500006C02223C1F70D900020A1F7D001FA01A5
:10176000A193B08308957AE0979F902D879F802D55
:10177000910D112408955058BB27AA270E94D30B1E
:101780000C944D0D0E943F0D38F00E94460D20F044
:1017900039F49F3F19F426F40C943C0D0EF4E095B7
:1017A000E7FB0C94360DE92F0E945E0D58F3BA1733
:1017B000620773078407950720F079F4A6F50C9467
:1017C000800D0EF4E0950B2EBA2FA02D0B01B90160
:1017D00090010C01CA01A0011124FF27591B99F0A7
:1017E000593F50F4503E68F11A16F040A22F232FB3
:1017F000342F4427585FF3CF469537952795A79503
:10180000F0405395C9F77EF41F16BA0B620B730BA9
:10181000840BBAF09150A1F0FF0FBB1F661F771F1A
:10182000881FC2F70EC0BA0F621F731F841F48F4CF
:10183000879577956795B795F7959E3F08F0B0CF58
:101840009395880F08F09927EE0F9795879508953F
:101850000E94120D08F481E008950E94410C0C943E
:101860004D0D0E94460D58F00E943F0D40F029F4A6
:101870005F3F29F00C94360D51110C94810D0C949E
:101880003C0D0E945E0D68F39923B1F3552391F34B
:10189000951B550BBB27AA2762177307840738F0DF
:1018A0009F5F5F4F220F331F441FAA1FA9F335D03C
:1018B0000E2E3AF0E0E832D091505040E695001CF0
:1018C000CAF72BD0FE2F29D0660F771F881FBB1FAA
:1018D000261737074807AB07B0E809F0BB0B802D88
:1018E000BF01FF2793585F4F3AF09E3F510578F0B4
:1018F0000C94360D0C94810D5F3FE4F3983ED4F3C5
:10190000869577956795B795F7959F5FC9F7880F87
:10191000911D9695879597F90895E1E0660F771FD9
:10192000881FBB1F621773078407BA0720F0621B6A
:10193000730B840BBA0BEE1F88F7E09508950E9495
:10194000A60C6894B1110C94810D08950E94660D47
:1019500088F09F5798F0B92F9927B751B0F0E1F070
:10196000660F771F881F991F1AF0BA95C9F714C020
:10197000B13091F00E94800DB1E008950C94800D7B
:10198000672F782F8827B85F39F0B93FCCF3869559
:1019900077956795B395D9F73EF4909580957095B6
:1019A00061957F4F8F4F9F4F0895E89409C097FB33
:1019B0003EF490958095709561957F4F8F4F9F4F26
:1019C0009923A9F0F92F96E9BB279395F69587956A
:1019D00077956795B795F111F8CFFAF4BB0F11F42D
:1019E00060FF1BC06F5F7F4F8F4F9F4F16C08823D4
:1019F00011F096E911C0772321F09EE8872F762F0A
:101A000005C0662371F096E8862F70E060E02AF04A
:101A10009A95660F771F881FDAF7880F9695879536
:101A200097F90895990F0008550FAA0BE0E8FEEF0B
:101A300016161706E807F907C0F012161306E40792
:101A4000F50798F0621B730B840B950B39F40A268B
:101A500061F0232B242B252B21F408950A2609F469
:101A6000A140A6958FEF811D811D089597F99F676D
:101A700080E870E060E008959FEF80EC0895002416
:101A80000A941616170618060906089500240A94E3
:101A900012161306140605060895092E0394000C69
:101AA00011F4882352F0BB0F40F4BF2B11F460FFF8
:101AB00004C06F5F7F4F8F4F9F4F089557FD905821
:101AC000440F551F59F05F3F71F04795880F97FB02
:101AD000991F61F09F3F79F08795089512161306BC
:101AE0001406551FF2CF4695F1DF08C016161706EB
:101AF0001806991FF1CF8695710561050894089520
:101B0000E894BB2766277727CB0197F908950E94B1
:101B1000120D08F48FEF08950E949F0D0C944D0D47
:101B20000E943F0D38F00E94460D20F0952311F0E1
:101B30000C94360D0C943C0D11240C94810D0E94D4
:101B40005E0D70F3959FC1F3950F50E0551F629F96
:101B5000F001729FBB27F00DB11D639FAA27F00D06
:101B6000B11DAA1F649F6627B00DA11D661F829F2D
:101B70002227B00DA11D621F739FB00DA11D621F12
:101B8000839FA00D611D221F749F3327A00D611D2F
:101B9000231F849F600D211D822F762F6A2F112411
:101BA0009F5750409AF0F1F088234AF0EE0FFF1F44
:101BB000BB1F661F771F881F91505040A9F79E3F9B
:101BC000510580F00C94360D0C94810D5F3FE4F3C9
:101BD000983ED4F3869577956795B795F795E795F1
:101BE0009F5FC1F7FE2B880F911D9695879597F9FA
:101BF0000895052E97FB1EF400940E94100E57FDC9
:101C000007D00E941E0E07FC03D04EF40C94100E59
:101C100050954095309521953F4F4F4F5F4F089518
:101C200090958095709561957F4F8F4F9F4F089548
:101C3000EE0FFF1F0590F491E02D0994A1E21A2EFA
:101C4000AA1BBB1BFD010DC0AA1FBB1FEE1FFF1F60
:101C5000A217B307E407F50720F0A21BB30BE40BB0
:101C6000F50B661F771F881F991F1A9469F76095F7
:101C70007095809590959B01AC01BD01CF010895B1
:101C8000FB01DC014150504030F08D9101908019F2
:101C900019F40020B9F7881B990B0895F894FFCF29
:101CA00000000000C6029802260464041004DE034B
:101CB000BD03890368031203E302000000007401FE
:101CC000D4000101C1013201100124010D0A004DAF
:101CD0004F544F524553204F464600556E72656330
:101CE0006F676E697A656420636F6D6D616E6420E5
:101CF0005B005D002000415A004D6F746F72657388
:101D00002054656C6573636F70696F20302E3100ED
:107E0000112484B714BE81FFF0D085E080938100F7
:107E100082E08093C00088E18093C10086E0809377
:107E2000C20080E18093C4008EE0C9D0259A86E02C
:107E300020E33CEF91E0309385002093840096BBD3
:107E4000B09BFECF1D9AA8958150A9F7CC24DD24C4
:107E500088248394B5E0AB2EA1E19A2EF3E0BF2EE7
:107E6000A2D0813461F49FD0082FAFD0023811F036
:107E7000013811F484E001C083E08DD089C08234E0
:107E800011F484E103C0853419F485E0A6D080C0E4
:107E9000853579F488D0E82EFF2485D0082F10E0AE
:107EA000102F00270E291F29000F111F8ED06801E7
:107EB0006FC0863521F484E090D080E0DECF843638
:107EC00009F040C070D06FD0082F6DD080E0C81688
:107ED00080E7D80618F4F601B7BEE895C0E0D1E017
:107EE00062D089930C17E1F7F0E0CF16F0E7DF06D8
:107EF00018F0F601B7BEE89568D007B600FCFDCFD4
:107F0000A601A0E0B1E02C9130E011968C91119780
:107F100090E0982F8827822B932B1296FA010C0160
:107F200087BEE89511244E5F5F4FF1E0A038BF0790
:107F300051F7F601A7BEE89507B600FCFDCF97BE46
:107F4000E89526C08437B1F42ED02DD0F82E2BD052
:107F50003CD0F601EF2C8F010F5F1F4F84911BD097
:107F6000EA94F801C1F70894C11CD11CFA94CF0C13
:107F7000D11C0EC0853739F428D08EE10CD085E9AC
:107F80000AD08FE07ACF813511F488E018D01DD067
:107F900080E101D065CF982F8091C00085FFFCCF94
:107FA0009093C60008958091C00087FFFCCF809118
:107FB000C00084FD01C0A8958091C6000895E0E648
:107FC000F0E098E1908380830895EDDF803219F02E
:107FD00088E0F5DFFFCF84E1DECF1F93182FE3DFCA
:107FE0001150E9F7F2DF1F91089580E0E8DFEE27F6
:047FF000FF270994CA
:027FFE00040479
:00000001FF
